{
	"data": {
		"bytecode": {
			"linkReferences": {},
			"object": "610160604052348015610010575f80fd5b506040516123f73803806123f783398101604081905261002f91610319565b60405180604001604052806005815260200164055415432360dc1b81525080604051806040016040528060018152602001603160f81b81525060405180604001604052806005815260200164055415432360dc1b8152506040518060400160405280600381526020016215505560ea1b81525081600390816100b191906103e2565b5060046100be82826103e2565b506100ce915083905060066101db565b610120526100dd8160076101db565b61014052815160208084019190912060e052815190820120610100524660a05261016960e05161010051604080517f8b73c3c69bb8fe3d512ecc4cf759cc79239f7b179b0ffacaa9a75d522b39400f60208201529081019290925260608201524660808201523060a08201525f9060c00160405160208183030381529060405280519060200120905090565b60805250503060c0525061017d5f8361020d565b506101a87fe2b7fb3b832174769106daebcfd6d1970523240dda11281102db9363b83b0dc48361020d565b506101d37f9f2df0fed2c77648de5860a4cc508cd0818c85b8b8a1ab4ceeef8d981c8956a68261020d565b5050506104f4565b5f6020835110156101f6576101ef836102b8565b9050610207565b8161020184826103e2565b5060ff90505b92915050565b5f8281526005602090815260408083206001600160a01b038516845290915281205460ff166102b1575f8381526005602090815260408083206001600160a01b03861684529091529020805460ff191660011790556102693390565b6001600160a01b0316826001600160a01b0316847f2f8788117e7eff1d82e926ec794901d17c78024a50270940304540a733656f0d60405160405180910390a4506001610207565b505f610207565b5f80829050601f815111156102eb578260405163305a27a960e01b81526004016102e2919061049c565b60405180910390fd5b80516102f6826104d1565b179392505050565b80516001600160a01b0381168114610314575f80fd5b919050565b5f806040838503121561032a575f80fd5b610333836102fe565b9150610341602084016102fe565b90509250929050565b634e487b7160e01b5f52604160045260245ffd5b600181811c9082168061037257607f821691505b60208210810361039057634e487b7160e01b5f52602260045260245ffd5b50919050565b601f8211156103dd57805f5260205f20601f840160051c810160208510156103bb5750805b601f840160051c820191505b818110156103da575f81556001016103c7565b50505b505050565b81516001600160401b038111156103fb576103fb61034a565b61040f81610409845461035e565b84610396565b6020601f821160018114610441575f831561042a5750848201515b5f19600385901b1c1916600184901b1784556103da565b5f84815260208120601f198516915b828110156104705787850151825560209485019460019092019101610450565b508482101561048d57868401515f19600387901b60f8161c191681555b50505050600190811b01905550565b602081525f82518060208401528060208501604085015e5f604082850101526040601f19601f83011684010191505092915050565b80516020808301519190811015610390575f1960209190910360031b1b16919050565b60805160a05160c05160e051610100516101205161014051611eb26105455f395f61136401525f61133701525f610eb101525f610e8901525f610de401525f610e0e01525f610e380152611eb25ff3fe608060405234801561000f575f80fd5b506004361061024a575f3560e01c8063746043e811610140578063a217fddf116100bf578063d1939d8911610084578063d1939d891461052d578063d505accf14610540578063d539139314610553578063d547741f1461057a578063dd62ed3e1461058d578063f17256ad146105c5575f80fd5b8063a217fddf146104ce578063a9059cbb146104d5578063c8cce34a146104e8578063d05f1f10146104fb578063d124d8e71461051a575f80fd5b80638bd709cc116101055780638bd709cc1461047957806391d148541461048c578063926d7d7f1461049f57806395d89b41146104b35780639cfb4b52146104bb575f80fd5b8063746043e81461041257806379cc6790146104255780637ecebe0014610438578063817f366c1461044b57806384b0196e1461045e575f80fd5b806336568abe116101cc57806347f60bb61161019157806347f60bb61461039b578063546a2ca4146103ba57806356695145146103cd578063579257b6146103ec57806370a08231146103ff575f80fd5b806336568abe146103305780633738b5a91461034357806340c10f19146103625780634208085b1461037557806342966c6814610388575f80fd5b806323b872dd1161021257806323b872dd146102cf578063248a9ca3146102e25780632f2ff15d14610304578063313ce567146103195780633644e51514610328575f80fd5b806301ffc9a71461024e57806306fdde0314610276578063095ea7b31461028b57806318160ddd1461029e57806320de2ed4146102b0575b5f80fd5b61026161025c3660046119ca565b6105e4565b60405190151581526020015b60405180910390f35b61027e61061a565b60405161026d9190611a26565b610261610299366004611a53565b6106aa565b6002545b60405190815260200161026d565b6102a26102be366004611a7b565b60096020525f908152604090205481565b6102616102dd366004611a94565b6106c1565b6102a26102f0366004611ace565b5f9081526005602052604090206001015490565b610317610312366004611ae5565b6106e4565b005b6040516012815260200161026d565b6102a261070e565b61031761033e366004611ae5565b61071c565b6102a2610351366004611a7b565b600c6020525f908152604090205481565b610317610370366004611a53565b610754565b610317610383366004611ace565b610788565b610317610396366004611ace565b610795565b6102a26103a9366004611ace565b600d6020525f908152604090205481565b6102a26103c8366004611a7b565b61079f565b6102a26103db366004611a7b565b600a6020525f908152604090205481565b6103176103fa366004611ace565b6107bc565b6102a261040d366004611a7b565b6107c6565b610317610420366004611a94565b610820565b610317610433366004611a53565b61098c565b6102a2610446366004611a7b565b6109a5565b610317610459366004611a53565b6109c2565b6104666109e3565b60405161026d9796959493929190611b0f565b610317610487366004611a53565b610a25565b61026161049a366004611ae5565b610a46565b6102a25f80516020611e5d83398151915281565b61027e610a70565b6103176104c9366004611c44565b610a7f565b6102a25f81565b6102616104e3366004611a53565b610aa1565b6103176104f6366004611c97565b610aae565b6102a2610509366004611a7b565b600b6020525f908152604090205481565b610317610528366004611ace565b610ad8565b61031761053b366004611a53565b610ae2565b61031761054e366004611cf4565b610b03565b6102a27f9f2df0fed2c77648de5860a4cc508cd0818c85b8b8a1ab4ceeef8d981c8956a681565b610317610588366004611ae5565b610c39565b6102a261059b366004611d61565b6001600160a01b039182165f90815260016020908152604080832093909416825291909152205490565b6102a26105d3366004611a7b565b600e6020525f908152604090205481565b5f6001600160e01b03198216637965db0b60e01b148061061457506301ffc9a760e01b6001600160e01b03198316145b92915050565b60606003805461062990611d89565b80601f016020809104026020016040519081016040528092919081815260200182805461065590611d89565b80156106a05780601f10610677576101008083540402835291602001916106a0565b820191905f5260205f20905b81548152906001019060200180831161068357829003601f168201915b5050505050905090565b5f336106b7818585610c5d565b5060019392505050565b5f336106ce858285610c6a565b6106d9858585610ce0565b506001949350505050565b5f828152600560205260409020600101546106fe81610d3d565b6107088383610d47565b50505050565b5f610717610dd8565b905090565b6001600160a01b03811633146107455760405163334bd91960e11b815260040160405180910390fd5b61074f8282610f01565b505050565b7f9f2df0fed2c77648de5860a4cc508cd0818c85b8b8a1ab4ceeef8d981c8956a661077e81610d3d565b61074f8383610f6c565b6107923382610fa0565b50565b610792338261100f565b6001600160a01b0381165f90815260208190526040812054610614565b6107923382611043565b5f6001600160a01b0382166107f2576001600160a01b0382165f90815260208190526040902054610614565b6001600160a01b0382165f908152600e60209081526040808320546009909252909120546106149190611dd5565b604080516001600160a01b038086166020830152841691810191909152606081018290525f9060800160408051601f1981840301815291815281516020928301205f818152600d9093529120549091506108ad5760405162461bcd60e51b81526020600482015260096024820152681b9bdd08199bdd5b9960ba1b60448201526064015b60405180910390fd5b816108cc856001600160a01b03165f9081526020819052604090205490565b101561090b5760405162461bcd60e51b815260206004820152600e60248201526d4f7574206f662042616c616e636560901b60448201526064016108a4565b5f818152600d60205260408120805460019290610929908490611dfc565b9091555061093a9050848484611102565b604080516001600160a01b038087168252851660208201529081018390527f615a90b6cfa77287f9e381f0aed394618bcfa338a2b4039eb03854fd16277f6d906060015b60405180910390a150505050565b610997823383610c6a565b6109a1828261100f565b5050565b6001600160a01b0381165f90815260086020526040812054610614565b5f80516020611e5d8339815191526109d981610d3d565b61074f8383611272565b5f6060805f805f60606109f4611330565b6109fc61135d565b604080515f80825260208201909252600f60f81b9b939a50919850469750309650945092509050565b5f80516020611e5d833981519152610a3c81610d3d565b61074f8383610fa0565b5f9182526005602090815260408084206001600160a01b0393909316845291905290205460ff1690565b60606004805461062990611d89565b5f80516020611e5d833981519152610a9681610d3d565b61070884848461138a565b5f336106b7818585610ce0565b5f80516020611e5d833981519152610ac581610d3d565b610ad185858585611475565b5050505050565b6107923382611272565b5f80516020611e5d833981519152610af981610d3d565b61074f8383611043565b83421115610b275760405163313c898160e11b8152600481018590526024016108a4565b5f7f6e71edae12b1b97f4d1f60370fef10105fa2faae0126114a169c64845d6126c9888888610b728c6001600160a01b03165f90815260086020526040902080546001810190915590565b6040805160208101969096526001600160a01b0394851690860152929091166060840152608083015260a082015260c0810186905260e0016040516020818303038152906040528051906020012090505f610bcc826114b4565b90505f610bdb828787876114e0565b9050896001600160a01b0316816001600160a01b031614610c22576040516325c0072360e11b81526001600160a01b0380831660048301528b1660248201526044016108a4565b610c2d8a8a8a610c5d565b50505050505050505050565b5f82815260056020526040902060010154610c5381610d3d565b6107088383610f01565b61074f838383600161150c565b6001600160a01b038381165f908152600160209081526040808320938616835292905220545f198110156107085781811015610cd257604051637dc7a0d960e11b81526001600160a01b038416600482015260248101829052604481018390526064016108a4565b61070884848484035f61150c565b6001600160a01b038316610d0957604051634b637e8f60e11b81525f60048201526024016108a4565b6001600160a01b038216610d325760405163ec442f0560e01b81525f60048201526024016108a4565b61074f838383611102565b61079281336115de565b5f610d528383610a46565b610dd1575f8381526005602090815260408083206001600160a01b03861684529091529020805460ff19166001179055610d893390565b6001600160a01b0316826001600160a01b0316847f2f8788117e7eff1d82e926ec794901d17c78024a50270940304540a733656f0d60405160405180910390a4506001610614565b505f610614565b5f306001600160a01b037f000000000000000000000000000000000000000000000000000000000000000016148015610e3057507f000000000000000000000000000000000000000000000000000000000000000046145b15610e5a57507f000000000000000000000000000000000000000000000000000000000000000090565b610717604080517f8b73c3c69bb8fe3d512ecc4cf759cc79239f7b179b0ffacaa9a75d522b39400f60208201527f0000000000000000000000000000000000000000000000000000000000000000918101919091527f000000000000000000000000000000000000000000000000000000000000000060608201524660808201523060a08201525f9060c00160405160208183030381529060405280519060200120905090565b5f610f0c8383610a46565b15610dd1575f8381526005602090815260408083206001600160a01b0386168085529252808320805460ff1916905551339286917ff6391f5c32d9c69d2a47ea670b442974b53935d1edc7fd64eb21e047a839171b9190a4506001610614565b6001600160a01b038216610f955760405163ec442f0560e01b81525f60048201526024016108a4565b6109a15f8383611102565b6001600160a01b0382165f908152600c602052604081208054839290610fc7908490611e0f565b90915550506040518181526001600160a01b038316907fc76f2893c8364e1dc575287b15854a9e3b1500edfb17c2df7c4708057a902602906020015b60405180910390a25050565b6001600160a01b03821661103857604051634b637e8f60e11b81525f60048201526024016108a4565b6109a1825f83611102565b6001600160a01b0382165f908152600c602052604090205481111561109b5760405162461bcd60e51b815260206004820152600e60248201526d1bdd5d081bd9881c995c5d595cdd60921b60448201526064016108a4565b6001600160a01b0382165f908152600c6020526040812080548392906110c2908490611dfc565b90915550506040518181526001600160a01b038316907f19e5fd24fcdc74c01aa1da498f0d20238648ebe4090306de4366505ca2ec37a490602001611003565b6001600160a01b0383165f908152602081905260409020548111158061112f57506001600160a01b038316155b1561119d5761113f838383611617565b6001600160a01b0382165f908152600e602052604081208054839290611166908490611dd5565b90915550506001600160a01b0383165f908152600e602052604081208054839290611192908490611e22565b9091555061074f9050565b604080516001600160a01b038086166020830152841691810191909152606081018290525f906080016040516020818303038152906040528051906020012090506001600d5f8381526020019081526020015f205f8282546111ff9190611e0f565b909155507fc8bbb0367916b8349af28efc8447fce2e5acdcdfae70451bb588466a6bc871349050848484611247836001600160a01b03165f9081526020819052604090205490565b604080516001600160a01b03958616815294909316602085015291830152606082015260800161097e565b6001600160a01b0382165f908152602081905260409020548111156112ca5760405162461bcd60e51b815260206004820152600e60248201526d6f7574206f662062616c616e636560901b60448201526064016108a4565b6112d4828261100f565b6001600160a01b0382165f908152600a6020526040812080548392906112fb908490611e0f565b90915550506001600160a01b0382165f908152600e602052604081208054839290611327908490611dd5565b90915550505050565b60606107177f0000000000000000000000000000000000000000000000000000000000000000600661173d565b60606107177f0000000000000000000000000000000000000000000000000000000000000000600761173d565b6001600160a01b0383165f908152600c60205260409020548211156113e25760405162461bcd60e51b815260206004820152600e60248201526d1bdd5d081bd9881c995c5d595cdd60921b60448201526064016108a4565b6113ec8383610f6c565b6001600160a01b0383165f908152600b602052604081208054849290611413908490611e0f565b90915550506001600160a01b0383165f908152600c60205260408120805484929061143f908490611dfc565b90915550506001600160a01b0383165f908152600e60205260408120805484929061146b908490611e22565b9091555050505050565b6001600160a01b0384165f908152600960209081526040808320869055600e909152812080548492906114a9908490611e22565b909155505050505050565b5f6106146114c0610dd8565b8360405161190160f01b8152600281019290925260228201526042902090565b5f805f806114f0888888886117e6565b92509250925061150082826118ae565b50909695505050505050565b6001600160a01b0384166115355760405163e602df0560e01b81525f60048201526024016108a4565b6001600160a01b03831661155e57604051634a1406b160e11b81525f60048201526024016108a4565b6001600160a01b038085165f908152600160209081526040808320938716835292905220829055801561070857826001600160a01b0316846001600160a01b03167f8c5be1e5ebec7d5bd14f71427d1e84f3dd0314c0f7b2291e5b200ac8c7c3b925846040516115d091815260200190565b60405180910390a350505050565b6115e88282610a46565b6109a15760405163e2517d3f60e01b81526001600160a01b0382166004820152602481018390526044016108a4565b6001600160a01b038316611641578060025f8282546116369190611e0f565b909155506116b19050565b6001600160a01b0383165f90815260208190526040902054818110156116935760405163391434e360e21b81526001600160a01b038516600482015260248101829052604481018390526064016108a4565b6001600160a01b0384165f9081526020819052604090209082900390555b6001600160a01b0382166116cd576002805482900390556116eb565b6001600160a01b0382165f9081526020819052604090208054820190555b816001600160a01b0316836001600160a01b03167fddf252ad1be2c89b69c2b068fc378daa952ba7f163c4a11628f55a4df523b3ef8360405161173091815260200190565b60405180910390a3505050565b606060ff83146117575761175083611966565b9050610614565b81805461176390611d89565b80601f016020809104026020016040519081016040528092919081815260200182805461178f90611d89565b80156117da5780601f106117b1576101008083540402835291602001916117da565b820191905f5260205f20905b8154815290600101906020018083116117bd57829003601f168201915b50505050509050610614565b5f80807f7fffffffffffffffffffffffffffffff5d576e7357a4501ddfe92f46681b20a084111561181f57505f915060039050826118a4565b604080515f808252602082018084528a905260ff891692820192909252606081018790526080810186905260019060a0016020604051602081039080840390855afa158015611870573d5f803e3d5ffd5b5050604051601f1901519150506001600160a01b03811661189b57505f9250600191508290506118a4565b92505f91508190505b9450945094915050565b5f8260038111156118c1576118c1611e48565b036118ca575050565b60018260038111156118de576118de611e48565b036118fc5760405163f645eedf60e01b815260040160405180910390fd5b600282600381111561191057611910611e48565b036119315760405163fce698f760e01b8152600481018290526024016108a4565b600382600381111561194557611945611e48565b036109a1576040516335e2f38360e21b8152600481018290526024016108a4565b60605f611972836119a3565b6040805160208082528183019092529192505f91906020820181803683375050509182525060208101929092525090565b5f60ff8216601f81111561061457604051632cd44ac360e21b815260040160405180910390fd5b5f602082840312156119da575f80fd5b81356001600160e01b0319811681146119f1575f80fd5b9392505050565b5f81518084528060208401602086015e5f602082860101526020601f19601f83011685010191505092915050565b602081525f6119f160208301846119f8565b80356001600160a01b0381168114611a4e575f80fd5b919050565b5f8060408385031215611a64575f80fd5b611a6d83611a38565b946020939093013593505050565b5f60208284031215611a8b575f80fd5b6119f182611a38565b5f805f60608486031215611aa6575f80fd5b611aaf84611a38565b9250611abd60208501611a38565b929592945050506040919091013590565b5f60208284031215611ade575f80fd5b5035919050565b5f8060408385031215611af6575f80fd5b82359150611b0660208401611a38565b90509250929050565b60ff60f81b8816815260e060208201525f611b2d60e08301896119f8565b8281036040840152611b3f81896119f8565b606084018890526001600160a01b038716608085015260a0840186905283810360c0850152845180825260208087019350909101905f5b81811015611b94578351835260209384019390920191600101611b76565b50909b9a5050505050505050505050565b634e487b7160e01b5f52604160045260245ffd5b5f82601f830112611bc8575f80fd5b813567ffffffffffffffff811115611be257611be2611ba5565b604051601f8201601f19908116603f0116810167ffffffffffffffff81118282101715611c1157611c11611ba5565b604052818152838201602001851015611c28575f80fd5b816020850160208301375f918101602001919091529392505050565b5f805f60608486031215611c56575f80fd5b611c5f84611a38565b925060208401359150604084013567ffffffffffffffff811115611c81575f80fd5b611c8d86828701611bb9565b9150509250925092565b5f805f8060808587031215611caa575f80fd5b611cb385611a38565b93506020850135925060408501359150606085013567ffffffffffffffff811115611cdc575f80fd5b611ce887828801611bb9565b91505092959194509250565b5f805f805f805f60e0888a031215611d0a575f80fd5b611d1388611a38565b9650611d2160208901611a38565b95506040880135945060608801359350608088013560ff81168114611d44575f80fd5b9699959850939692959460a0840135945060c09093013592915050565b5f8060408385031215611d72575f80fd5b611d7b83611a38565b9150611b0660208401611a38565b600181811c90821680611d9d57607f821691505b602082108103611dbb57634e487b7160e01b5f52602260045260245ffd5b50919050565b634e487b7160e01b5f52601160045260245ffd5b8082018281125f831280158216821582161715611df457611df4611dc1565b505092915050565b8181038181111561061457610614611dc1565b8082018082111561061457610614611dc1565b8181035f831280158383131683831282161715611e4157611e41611dc1565b5092915050565b634e487b7160e01b5f52602160045260245ffdfee2b7fb3b832174769106daebcfd6d1970523240dda11281102db9363b83b0dc4a2646970667358221220e9316f409d24f9f487eda343c880b9b6592103a752f692ceab5fa943890a9a2964736f6c634300081a0033",
			"opcodes": "PUSH2 0x160 PUSH1 0x40 MSTORE CALLVALUE DUP1 ISZERO PUSH2 0x10 JUMPI PUSH0 DUP1 REVERT JUMPDEST POP PUSH1 0x40 MLOAD PUSH2 0x23F7 CODESIZE SUB DUP1 PUSH2 0x23F7 DUP4 CODECOPY DUP2 ADD PUSH1 0x40 DUP2 SWAP1 MSTORE PUSH2 0x2F SWAP2 PUSH2 0x319 JUMP JUMPDEST PUSH1 0x40 MLOAD DUP1 PUSH1 0x40 ADD PUSH1 0x40 MSTORE DUP1 PUSH1 0x5 DUP2 MSTORE PUSH1 0x20 ADD PUSH5 0x554154323 PUSH1 0xDC SHL DUP2 MSTORE POP DUP1 PUSH1 0x40 MLOAD DUP1 PUSH1 0x40 ADD PUSH1 0x40 MSTORE DUP1 PUSH1 0x1 DUP2 MSTORE PUSH1 0x20 ADD PUSH1 0x31 PUSH1 0xF8 SHL DUP2 MSTORE POP PUSH1 0x40 MLOAD DUP1 PUSH1 0x40 ADD PUSH1 0x40 MSTORE DUP1 PUSH1 0x5 DUP2 MSTORE PUSH1 0x20 ADD PUSH5 0x554154323 PUSH1 0xDC SHL DUP2 MSTORE POP PUSH1 0x40 MLOAD DUP1 PUSH1 0x40 ADD PUSH1 0x40 MSTORE DUP1 PUSH1 0x3 DUP2 MSTORE PUSH1 0x20 ADD PUSH3 0x155055 PUSH1 0xEA SHL DUP2 MSTORE POP DUP2 PUSH1 0x3 SWAP1 DUP2 PUSH2 0xB1 SWAP2 SWAP1 PUSH2 0x3E2 JUMP JUMPDEST POP PUSH1 0x4 PUSH2 0xBE DUP3 DUP3 PUSH2 0x3E2 JUMP JUMPDEST POP PUSH2 0xCE SWAP2 POP DUP4 SWAP1 POP PUSH1 0x6 PUSH2 0x1DB JUMP JUMPDEST PUSH2 0x120 MSTORE PUSH2 0xDD DUP2 PUSH1 0x7 PUSH2 0x1DB JUMP JUMPDEST PUSH2 0x140 MSTORE DUP2 MLOAD PUSH1 0x20 DUP1 DUP5 ADD SWAP2 SWAP1 SWAP2 KECCAK256 PUSH1 0xE0 MSTORE DUP2 MLOAD SWAP1 DUP3 ADD KECCAK256 PUSH2 0x100 MSTORE CHAINID PUSH1 0xA0 MSTORE PUSH2 0x169 PUSH1 0xE0 MLOAD PUSH2 0x100 MLOAD PUSH1 0x40 DUP1 MLOAD PUSH32 0x8B73C3C69BB8FE3D512ECC4CF759CC79239F7B179B0FFACAA9A75D522B39400F PUSH1 0x20 DUP3 ADD MSTORE SWAP1 DUP2 ADD SWAP3 SWAP1 SWAP3 MSTORE PUSH1 0x60 DUP3 ADD MSTORE CHAINID PUSH1 0x80 DUP3 ADD MSTORE ADDRESS PUSH1 0xA0 DUP3 ADD MSTORE PUSH0 SWAP1 PUSH1 0xC0 ADD PUSH1 0x40 MLOAD PUSH1 0x20 DUP2 DUP4 SUB SUB DUP2 MSTORE SWAP1 PUSH1 0x40 MSTORE DUP1 MLOAD SWAP1 PUSH1 0x20 ADD KECCAK256 SWAP1 POP SWAP1 JUMP JUMPDEST PUSH1 0x80 MSTORE POP POP ADDRESS PUSH1 0xC0 MSTORE POP PUSH2 0x17D PUSH0 DUP4 PUSH2 0x20D JUMP JUMPDEST POP PUSH2 0x1A8 PUSH32 0xE2B7FB3B832174769106DAEBCFD6D1970523240DDA11281102DB9363B83B0DC4 DUP4 PUSH2 0x20D JUMP JUMPDEST POP PUSH2 0x1D3 PUSH32 0x9F2DF0FED2C77648DE5860A4CC508CD0818C85B8B8A1AB4CEEEF8D981C8956A6 DUP3 PUSH2 0x20D JUMP JUMPDEST POP POP POP PUSH2 0x4F4 JUMP JUMPDEST PUSH0 PUSH1 0x20 DUP4 MLOAD LT ISZERO PUSH2 0x1F6 JUMPI PUSH2 0x1EF DUP4 PUSH2 0x2B8 JUMP JUMPDEST SWAP1 POP PUSH2 0x207 JUMP JUMPDEST DUP2 PUSH2 0x201 DUP5 DUP3 PUSH2 0x3E2 JUMP JUMPDEST POP PUSH1 0xFF SWAP1 POP JUMPDEST SWAP3 SWAP2 POP POP JUMP JUMPDEST PUSH0 DUP3 DUP2 MSTORE PUSH1 0x5 PUSH1 0x20 SWAP1 DUP2 MSTORE PUSH1 0x40 DUP1 DUP4 KECCAK256 PUSH1 0x1 PUSH1 0x1 PUSH1 0xA0 SHL SUB DUP6 AND DUP5 MSTORE SWAP1 SWAP2 MSTORE DUP2 KECCAK256 SLOAD PUSH1 0xFF AND PUSH2 0x2B1 JUMPI PUSH0 DUP4 DUP2 MSTORE PUSH1 0x5 PUSH1 0x20 SWAP1 DUP2 MSTORE PUSH1 0x40 DUP1 DUP4 KECCAK256 PUSH1 0x1 PUSH1 0x1 PUSH1 0xA0 SHL SUB DUP7 AND DUP5 MSTORE SWAP1 SWAP2 MSTORE SWAP1 KECCAK256 DUP1 SLOAD PUSH1 0xFF NOT AND PUSH1 0x1 OR SWAP1 SSTORE PUSH2 0x269 CALLER SWAP1 JUMP JUMPDEST PUSH1 0x1 PUSH1 0x1 PUSH1 0xA0 SHL SUB AND DUP3 PUSH1 0x1 PUSH1 0x1 PUSH1 0xA0 SHL SUB AND DUP5 PUSH32 0x2F8788117E7EFF1D82E926EC794901D17C78024A50270940304540A733656F0D PUSH1 0x40 MLOAD PUSH1 0x40 MLOAD DUP1 SWAP2 SUB SWAP1 LOG4 POP PUSH1 0x1 PUSH2 0x207 JUMP JUMPDEST POP PUSH0 PUSH2 0x207 JUMP JUMPDEST PUSH0 DUP1 DUP3 SWAP1 POP PUSH1 0x1F DUP2 MLOAD GT ISZERO PUSH2 0x2EB JUMPI DUP3 PUSH1 0x40 MLOAD PUSH4 0x305A27A9 PUSH1 0xE0 SHL DUP2 MSTORE PUSH1 0x4 ADD PUSH2 0x2E2 SWAP2 SWAP1 PUSH2 0x49C JUMP JUMPDEST PUSH1 0x40 MLOAD DUP1 SWAP2 SUB SWAP1 REVERT JUMPDEST DUP1 MLOAD PUSH2 0x2F6 DUP3 PUSH2 0x4D1 JUMP JUMPDEST OR SWAP4 SWAP3 POP POP POP JUMP JUMPDEST DUP1 MLOAD PUSH1 0x1 PUSH1 0x1 PUSH1 0xA0 SHL SUB DUP2 AND DUP2 EQ PUSH2 0x314 JUMPI PUSH0 DUP1 REVERT JUMPDEST SWAP2 SWAP1 POP JUMP JUMPDEST PUSH0 DUP1 PUSH1 0x40 DUP4 DUP6 SUB SLT ISZERO PUSH2 0x32A JUMPI PUSH0 DUP1 REVERT JUMPDEST PUSH2 0x333 DUP4 PUSH2 0x2FE JUMP JUMPDEST SWAP2 POP PUSH2 0x341 PUSH1 0x20 DUP5 ADD PUSH2 0x2FE JUMP JUMPDEST SWAP1 POP SWAP3 POP SWAP3 SWAP1 POP JUMP JUMPDEST PUSH4 0x4E487B71 PUSH1 0xE0 SHL PUSH0 MSTORE PUSH1 0x41 PUSH1 0x4 MSTORE PUSH1 0x24 PUSH0 REVERT JUMPDEST PUSH1 0x1 DUP2 DUP2 SHR SWAP1 DUP3 AND DUP1 PUSH2 0x372 JUMPI PUSH1 0x7F DUP3 AND SWAP2 POP JUMPDEST PUSH1 0x20 DUP3 LT DUP2 SUB PUSH2 0x390 JUMPI PUSH4 0x4E487B71 PUSH1 0xE0 SHL PUSH0 MSTORE PUSH1 0x22 PUSH1 0x4 MSTORE PUSH1 0x24 PUSH0 REVERT JUMPDEST POP SWAP2 SWAP1 POP JUMP JUMPDEST PUSH1 0x1F DUP3 GT ISZERO PUSH2 0x3DD JUMPI DUP1 PUSH0 MSTORE PUSH1 0x20 PUSH0 KECCAK256 PUSH1 0x1F DUP5 ADD PUSH1 0x5 SHR DUP2 ADD PUSH1 0x20 DUP6 LT ISZERO PUSH2 0x3BB JUMPI POP DUP1 JUMPDEST PUSH1 0x1F DUP5 ADD PUSH1 0x5 SHR DUP3 ADD SWAP2 POP JUMPDEST DUP2 DUP2 LT ISZERO PUSH2 0x3DA JUMPI PUSH0 DUP2 SSTORE PUSH1 0x1 ADD PUSH2 0x3C7 JUMP JUMPDEST POP POP JUMPDEST POP POP POP JUMP JUMPDEST DUP2 MLOAD PUSH1 0x1 PUSH1 0x1 PUSH1 0x40 SHL SUB DUP2 GT ISZERO PUSH2 0x3FB JUMPI PUSH2 0x3FB PUSH2 0x34A JUMP JUMPDEST PUSH2 0x40F DUP2 PUSH2 0x409 DUP5 SLOAD PUSH2 0x35E JUMP JUMPDEST DUP5 PUSH2 0x396 JUMP JUMPDEST PUSH1 0x20 PUSH1 0x1F DUP3 GT PUSH1 0x1 DUP2 EQ PUSH2 0x441 JUMPI PUSH0 DUP4 ISZERO PUSH2 0x42A JUMPI POP DUP5 DUP3 ADD MLOAD JUMPDEST PUSH0 NOT PUSH1 0x3 DUP6 SWAP1 SHL SHR NOT AND PUSH1 0x1 DUP5 SWAP1 SHL OR DUP5 SSTORE PUSH2 0x3DA JUMP JUMPDEST PUSH0 DUP5 DUP2 MSTORE PUSH1 0x20 DUP2 KECCAK256 PUSH1 0x1F NOT DUP6 AND SWAP2 JUMPDEST DUP3 DUP2 LT ISZERO PUSH2 0x470 JUMPI DUP8 DUP6 ADD MLOAD DUP3 SSTORE PUSH1 0x20 SWAP5 DUP6 ADD SWAP5 PUSH1 0x1 SWAP1 SWAP3 ADD SWAP2 ADD PUSH2 0x450 JUMP JUMPDEST POP DUP5 DUP3 LT ISZERO PUSH2 0x48D JUMPI DUP7 DUP5 ADD MLOAD PUSH0 NOT PUSH1 0x3 DUP8 SWAP1 SHL PUSH1 0xF8 AND SHR NOT AND DUP2 SSTORE JUMPDEST POP POP POP POP PUSH1 0x1 SWAP1 DUP2 SHL ADD SWAP1 SSTORE POP JUMP JUMPDEST PUSH1 0x20 DUP2 MSTORE PUSH0 DUP3 MLOAD DUP1 PUSH1 0x20 DUP5 ADD MSTORE DUP1 PUSH1 0x20 DUP6 ADD PUSH1 0x40 DUP6 ADD MCOPY PUSH0 PUSH1 0x40 DUP3 DUP6 ADD ADD MSTORE PUSH1 0x40 PUSH1 0x1F NOT PUSH1 0x1F DUP4 ADD AND DUP5 ADD ADD SWAP2 POP POP SWAP3 SWAP2 POP POP JUMP JUMPDEST DUP1 MLOAD PUSH1 0x20 DUP1 DUP4 ADD MLOAD SWAP2 SWAP1 DUP2 LT ISZERO PUSH2 0x390 JUMPI PUSH0 NOT PUSH1 0x20 SWAP2 SWAP1 SWAP2 SUB PUSH1 0x3 SHL SHL AND SWAP2 SWAP1 POP JUMP JUMPDEST PUSH1 0x80 MLOAD PUSH1 0xA0 MLOAD PUSH1 0xC0 MLOAD PUSH1 0xE0 MLOAD PUSH2 0x100 MLOAD PUSH2 0x120 MLOAD PUSH2 0x140 MLOAD PUSH2 0x1EB2 PUSH2 0x545 PUSH0 CODECOPY PUSH0 PUSH2 0x1364 ADD MSTORE PUSH0 PUSH2 0x1337 ADD MSTORE PUSH0 PUSH2 0xEB1 ADD MSTORE PUSH0 PUSH2 0xE89 ADD MSTORE PUSH0 PUSH2 0xDE4 ADD MSTORE PUSH0 PUSH2 0xE0E ADD MSTORE PUSH0 PUSH2 0xE38 ADD MSTORE PUSH2 0x1EB2 PUSH0 RETURN INVALID PUSH1 0x80 PUSH1 0x40 MSTORE CALLVALUE DUP1 ISZERO PUSH2 0xF JUMPI PUSH0 DUP1 REVERT JUMPDEST POP PUSH1 0x4 CALLDATASIZE LT PUSH2 0x24A JUMPI PUSH0 CALLDATALOAD PUSH1 0xE0 SHR DUP1 PUSH4 0x746043E8 GT PUSH2 0x140 JUMPI DUP1 PUSH4 0xA217FDDF GT PUSH2 0xBF JUMPI DUP1 PUSH4 0xD1939D89 GT PUSH2 0x84 JUMPI DUP1 PUSH4 0xD1939D89 EQ PUSH2 0x52D JUMPI DUP1 PUSH4 0xD505ACCF EQ PUSH2 0x540 JUMPI DUP1 PUSH4 0xD5391393 EQ PUSH2 0x553 JUMPI DUP1 PUSH4 0xD547741F EQ PUSH2 0x57A JUMPI DUP1 PUSH4 0xDD62ED3E EQ PUSH2 0x58D JUMPI DUP1 PUSH4 0xF17256AD EQ PUSH2 0x5C5 JUMPI PUSH0 DUP1 REVERT JUMPDEST DUP1 PUSH4 0xA217FDDF EQ PUSH2 0x4CE JUMPI DUP1 PUSH4 0xA9059CBB EQ PUSH2 0x4D5 JUMPI DUP1 PUSH4 0xC8CCE34A EQ PUSH2 0x4E8 JUMPI DUP1 PUSH4 0xD05F1F10 EQ PUSH2 0x4FB JUMPI DUP1 PUSH4 0xD124D8E7 EQ PUSH2 0x51A JUMPI PUSH0 DUP1 REVERT JUMPDEST DUP1 PUSH4 0x8BD709CC GT PUSH2 0x105 JUMPI DUP1 PUSH4 0x8BD709CC EQ PUSH2 0x479 JUMPI DUP1 PUSH4 0x91D14854 EQ PUSH2 0x48C JUMPI DUP1 PUSH4 0x926D7D7F EQ PUSH2 0x49F JUMPI DUP1 PUSH4 0x95D89B41 EQ PUSH2 0x4B3 JUMPI DUP1 PUSH4 0x9CFB4B52 EQ PUSH2 0x4BB JUMPI PUSH0 DUP1 REVERT JUMPDEST DUP1 PUSH4 0x746043E8 EQ PUSH2 0x412 JUMPI DUP1 PUSH4 0x79CC6790 EQ PUSH2 0x425 JUMPI DUP1 PUSH4 0x7ECEBE00 EQ PUSH2 0x438 JUMPI DUP1 PUSH4 0x817F366C EQ PUSH2 0x44B JUMPI DUP1 PUSH4 0x84B0196E EQ PUSH2 0x45E JUMPI PUSH0 DUP1 REVERT JUMPDEST DUP1 PUSH4 0x36568ABE GT PUSH2 0x1CC JUMPI DUP1 PUSH4 0x47F60BB6 GT PUSH2 0x191 JUMPI DUP1 PUSH4 0x47F60BB6 EQ PUSH2 0x39B JUMPI DUP1 PUSH4 0x546A2CA4 EQ PUSH2 0x3BA JUMPI DUP1 PUSH4 0x56695145 EQ PUSH2 0x3CD JUMPI DUP1 PUSH4 0x579257B6 EQ PUSH2 0x3EC JUMPI DUP1 PUSH4 0x70A08231 EQ PUSH2 0x3FF JUMPI PUSH0 DUP1 REVERT JUMPDEST DUP1 PUSH4 0x36568ABE EQ PUSH2 0x330 JUMPI DUP1 PUSH4 0x3738B5A9 EQ PUSH2 0x343 JUMPI DUP1 PUSH4 0x40C10F19 EQ PUSH2 0x362 JUMPI DUP1 PUSH4 0x4208085B EQ PUSH2 0x375 JUMPI DUP1 PUSH4 0x42966C68 EQ PUSH2 0x388 JUMPI PUSH0 DUP1 REVERT JUMPDEST DUP1 PUSH4 0x23B872DD GT PUSH2 0x212 JUMPI DUP1 PUSH4 0x23B872DD EQ PUSH2 0x2CF JUMPI DUP1 PUSH4 0x248A9CA3 EQ PUSH2 0x2E2 JUMPI DUP1 PUSH4 0x2F2FF15D EQ PUSH2 0x304 JUMPI DUP1 PUSH4 0x313CE567 EQ PUSH2 0x319 JUMPI DUP1 PUSH4 0x3644E515 EQ PUSH2 0x328 JUMPI PUSH0 DUP1 REVERT JUMPDEST DUP1 PUSH4 0x1FFC9A7 EQ PUSH2 0x24E JUMPI DUP1 PUSH4 0x6FDDE03 EQ PUSH2 0x276 JUMPI DUP1 PUSH4 0x95EA7B3 EQ PUSH2 0x28B JUMPI DUP1 PUSH4 0x18160DDD EQ PUSH2 0x29E JUMPI DUP1 PUSH4 0x20DE2ED4 EQ PUSH2 0x2B0 JUMPI JUMPDEST PUSH0 DUP1 REVERT JUMPDEST PUSH2 0x261 PUSH2 0x25C CALLDATASIZE PUSH1 0x4 PUSH2 0x19CA JUMP JUMPDEST PUSH2 0x5E4 JUMP JUMPDEST PUSH1 0x40 MLOAD SWAP1 ISZERO ISZERO DUP2 MSTORE PUSH1 0x20 ADD JUMPDEST PUSH1 0x40 MLOAD DUP1 SWAP2 SUB SWAP1 RETURN JUMPDEST PUSH2 0x27E PUSH2 0x61A JUMP JUMPDEST PUSH1 0x40 MLOAD PUSH2 0x26D SWAP2 SWAP1 PUSH2 0x1A26 JUMP JUMPDEST PUSH2 0x261 PUSH2 0x299 CALLDATASIZE PUSH1 0x4 PUSH2 0x1A53 JUMP JUMPDEST PUSH2 0x6AA JUMP JUMPDEST PUSH1 0x2 SLOAD JUMPDEST PUSH1 0x40 MLOAD SWAP1 DUP2 MSTORE PUSH1 0x20 ADD PUSH2 0x26D JUMP JUMPDEST PUSH2 0x2A2 PUSH2 0x2BE CALLDATASIZE PUSH1 0x4 PUSH2 0x1A7B JUMP JUMPDEST PUSH1 0x9 PUSH1 0x20 MSTORE PUSH0 SWAP1 DUP2 MSTORE PUSH1 0x40 SWAP1 KECCAK256 SLOAD DUP2 JUMP JUMPDEST PUSH2 0x261 PUSH2 0x2DD CALLDATASIZE PUSH1 0x4 PUSH2 0x1A94 JUMP JUMPDEST PUSH2 0x6C1 JUMP JUMPDEST PUSH2 0x2A2 PUSH2 0x2F0 CALLDATASIZE PUSH1 0x4 PUSH2 0x1ACE JUMP JUMPDEST PUSH0 SWAP1 DUP2 MSTORE PUSH1 0x5 PUSH1 0x20 MSTORE PUSH1 0x40 SWAP1 KECCAK256 PUSH1 0x1 ADD SLOAD SWAP1 JUMP JUMPDEST PUSH2 0x317 PUSH2 0x312 CALLDATASIZE PUSH1 0x4 PUSH2 0x1AE5 JUMP JUMPDEST PUSH2 0x6E4 JUMP JUMPDEST STOP JUMPDEST PUSH1 0x40 MLOAD PUSH1 0x12 DUP2 MSTORE PUSH1 0x20 ADD PUSH2 0x26D JUMP JUMPDEST PUSH2 0x2A2 PUSH2 0x70E JUMP JUMPDEST PUSH2 0x317 PUSH2 0x33E CALLDATASIZE PUSH1 0x4 PUSH2 0x1AE5 JUMP JUMPDEST PUSH2 0x71C JUMP JUMPDEST PUSH2 0x2A2 PUSH2 0x351 CALLDATASIZE PUSH1 0x4 PUSH2 0x1A7B JUMP JUMPDEST PUSH1 0xC PUSH1 0x20 MSTORE PUSH0 SWAP1 DUP2 MSTORE PUSH1 0x40 SWAP1 KECCAK256 SLOAD DUP2 JUMP JUMPDEST PUSH2 0x317 PUSH2 0x370 CALLDATASIZE PUSH1 0x4 PUSH2 0x1A53 JUMP JUMPDEST PUSH2 0x754 JUMP JUMPDEST PUSH2 0x317 PUSH2 0x383 CALLDATASIZE PUSH1 0x4 PUSH2 0x1ACE JUMP JUMPDEST PUSH2 0x788 JUMP JUMPDEST PUSH2 0x317 PUSH2 0x396 CALLDATASIZE PUSH1 0x4 PUSH2 0x1ACE JUMP JUMPDEST PUSH2 0x795 JUMP JUMPDEST PUSH2 0x2A2 PUSH2 0x3A9 CALLDATASIZE PUSH1 0x4 PUSH2 0x1ACE JUMP JUMPDEST PUSH1 0xD PUSH1 0x20 MSTORE PUSH0 SWAP1 DUP2 MSTORE PUSH1 0x40 SWAP1 KECCAK256 SLOAD DUP2 JUMP JUMPDEST PUSH2 0x2A2 PUSH2 0x3C8 CALLDATASIZE PUSH1 0x4 PUSH2 0x1A7B JUMP JUMPDEST PUSH2 0x79F JUMP JUMPDEST PUSH2 0x2A2 PUSH2 0x3DB CALLDATASIZE PUSH1 0x4 PUSH2 0x1A7B JUMP JUMPDEST PUSH1 0xA PUSH1 0x20 MSTORE PUSH0 SWAP1 DUP2 MSTORE PUSH1 0x40 SWAP1 KECCAK256 SLOAD DUP2 JUMP JUMPDEST PUSH2 0x317 PUSH2 0x3FA CALLDATASIZE PUSH1 0x4 PUSH2 0x1ACE JUMP JUMPDEST PUSH2 0x7BC JUMP JUMPDEST PUSH2 0x2A2 PUSH2 0x40D CALLDATASIZE PUSH1 0x4 PUSH2 0x1A7B JUMP JUMPDEST PUSH2 0x7C6 JUMP JUMPDEST PUSH2 0x317 PUSH2 0x420 CALLDATASIZE PUSH1 0x4 PUSH2 0x1A94 JUMP JUMPDEST PUSH2 0x820 JUMP JUMPDEST PUSH2 0x317 PUSH2 0x433 CALLDATASIZE PUSH1 0x4 PUSH2 0x1A53 JUMP JUMPDEST PUSH2 0x98C JUMP JUMPDEST PUSH2 0x2A2 PUSH2 0x446 CALLDATASIZE PUSH1 0x4 PUSH2 0x1A7B JUMP JUMPDEST PUSH2 0x9A5 JUMP JUMPDEST PUSH2 0x317 PUSH2 0x459 CALLDATASIZE PUSH1 0x4 PUSH2 0x1A53 JUMP JUMPDEST PUSH2 0x9C2 JUMP JUMPDEST PUSH2 0x466 PUSH2 0x9E3 JUMP JUMPDEST PUSH1 0x40 MLOAD PUSH2 0x26D SWAP8 SWAP7 SWAP6 SWAP5 SWAP4 SWAP3 SWAP2 SWAP1 PUSH2 0x1B0F JUMP JUMPDEST PUSH2 0x317 PUSH2 0x487 CALLDATASIZE PUSH1 0x4 PUSH2 0x1A53 JUMP JUMPDEST PUSH2 0xA25 JUMP JUMPDEST PUSH2 0x261 PUSH2 0x49A CALLDATASIZE PUSH1 0x4 PUSH2 0x1AE5 JUMP JUMPDEST PUSH2 0xA46 JUMP JUMPDEST PUSH2 0x2A2 PUSH0 DUP1 MLOAD PUSH1 0x20 PUSH2 0x1E5D DUP4 CODECOPY DUP2 MLOAD SWAP2 MSTORE DUP2 JUMP JUMPDEST PUSH2 0x27E PUSH2 0xA70 JUMP JUMPDEST PUSH2 0x317 PUSH2 0x4C9 CALLDATASIZE PUSH1 0x4 PUSH2 0x1C44 JUMP JUMPDEST PUSH2 0xA7F JUMP JUMPDEST PUSH2 0x2A2 PUSH0 DUP2 JUMP JUMPDEST PUSH2 0x261 PUSH2 0x4E3 CALLDATASIZE PUSH1 0x4 PUSH2 0x1A53 JUMP JUMPDEST PUSH2 0xAA1 JUMP JUMPDEST PUSH2 0x317 PUSH2 0x4F6 CALLDATASIZE PUSH1 0x4 PUSH2 0x1C97 JUMP JUMPDEST PUSH2 0xAAE JUMP JUMPDEST PUSH2 0x2A2 PUSH2 0x509 CALLDATASIZE PUSH1 0x4 PUSH2 0x1A7B JUMP JUMPDEST PUSH1 0xB PUSH1 0x20 MSTORE PUSH0 SWAP1 DUP2 MSTORE PUSH1 0x40 SWAP1 KECCAK256 SLOAD DUP2 JUMP JUMPDEST PUSH2 0x317 PUSH2 0x528 CALLDATASIZE PUSH1 0x4 PUSH2 0x1ACE JUMP JUMPDEST PUSH2 0xAD8 JUMP JUMPDEST PUSH2 0x317 PUSH2 0x53B CALLDATASIZE PUSH1 0x4 PUSH2 0x1A53 JUMP JUMPDEST PUSH2 0xAE2 JUMP JUMPDEST PUSH2 0x317 PUSH2 0x54E CALLDATASIZE PUSH1 0x4 PUSH2 0x1CF4 JUMP JUMPDEST PUSH2 0xB03 JUMP JUMPDEST PUSH2 0x2A2 PUSH32 0x9F2DF0FED2C77648DE5860A4CC508CD0818C85B8B8A1AB4CEEEF8D981C8956A6 DUP2 JUMP JUMPDEST PUSH2 0x317 PUSH2 0x588 CALLDATASIZE PUSH1 0x4 PUSH2 0x1AE5 JUMP JUMPDEST PUSH2 0xC39 JUMP JUMPDEST PUSH2 0x2A2 PUSH2 0x59B CALLDATASIZE PUSH1 0x4 PUSH2 0x1D61 JUMP JUMPDEST PUSH1 0x1 PUSH1 0x1 PUSH1 0xA0 SHL SUB SWAP2 DUP3 AND PUSH0 SWAP1 DUP2 MSTORE PUSH1 0x1 PUSH1 0x20 SWAP1 DUP2 MSTORE PUSH1 0x40 DUP1 DUP4 KECCAK256 SWAP4 SWAP1 SWAP5 AND DUP3 MSTORE SWAP2 SWAP1 SWAP2 MSTORE KECCAK256 SLOAD SWAP1 JUMP JUMPDEST PUSH2 0x2A2 PUSH2 0x5D3 CALLDATASIZE PUSH1 0x4 PUSH2 0x1A7B JUMP JUMPDEST PUSH1 0xE PUSH1 0x20 MSTORE PUSH0 SWAP1 DUP2 MSTORE PUSH1 0x40 SWAP1 KECCAK256 SLOAD DUP2 JUMP JUMPDEST PUSH0 PUSH1 0x1 PUSH1 0x1 PUSH1 0xE0 SHL SUB NOT DUP3 AND PUSH4 0x7965DB0B PUSH1 0xE0 SHL EQ DUP1 PUSH2 0x614 JUMPI POP PUSH4 0x1FFC9A7 PUSH1 0xE0 SHL PUSH1 0x1 PUSH1 0x1 PUSH1 0xE0 SHL SUB NOT DUP4 AND EQ JUMPDEST SWAP3 SWAP2 POP POP JUMP JUMPDEST PUSH1 0x60 PUSH1 0x3 DUP1 SLOAD PUSH2 0x629 SWAP1 PUSH2 0x1D89 JUMP JUMPDEST DUP1 PUSH1 0x1F ADD PUSH1 0x20 DUP1 SWAP2 DIV MUL PUSH1 0x20 ADD PUSH1 0x40 MLOAD SWAP1 DUP2 ADD PUSH1 0x40 MSTORE DUP1 SWAP3 SWAP2 SWAP1 DUP2 DUP2 MSTORE PUSH1 0x20 ADD DUP3 DUP1 SLOAD PUSH2 0x655 SWAP1 PUSH2 0x1D89 JUMP JUMPDEST DUP1 ISZERO PUSH2 0x6A0 JUMPI DUP1 PUSH1 0x1F LT PUSH2 0x677 JUMPI PUSH2 0x100 DUP1 DUP4 SLOAD DIV MUL DUP4 MSTORE SWAP2 PUSH1 0x20 ADD SWAP2 PUSH2 0x6A0 JUMP JUMPDEST DUP3 ADD SWAP2 SWAP1 PUSH0 MSTORE PUSH1 0x20 PUSH0 KECCAK256 SWAP1 JUMPDEST DUP2 SLOAD DUP2 MSTORE SWAP1 PUSH1 0x1 ADD SWAP1 PUSH1 0x20 ADD DUP1 DUP4 GT PUSH2 0x683 JUMPI DUP3 SWAP1 SUB PUSH1 0x1F AND DUP3 ADD SWAP2 JUMPDEST POP POP POP POP POP SWAP1 POP SWAP1 JUMP JUMPDEST PUSH0 CALLER PUSH2 0x6B7 DUP2 DUP6 DUP6 PUSH2 0xC5D JUMP JUMPDEST POP PUSH1 0x1 SWAP4 SWAP3 POP POP POP JUMP JUMPDEST PUSH0 CALLER PUSH2 0x6CE DUP6 DUP3 DUP6 PUSH2 0xC6A JUMP JUMPDEST PUSH2 0x6D9 DUP6 DUP6 DUP6 PUSH2 0xCE0 JUMP JUMPDEST POP PUSH1 0x1 SWAP5 SWAP4 POP POP POP POP JUMP JUMPDEST PUSH0 DUP3 DUP2 MSTORE PUSH1 0x5 PUSH1 0x20 MSTORE PUSH1 0x40 SWAP1 KECCAK256 PUSH1 0x1 ADD SLOAD PUSH2 0x6FE DUP2 PUSH2 0xD3D JUMP JUMPDEST PUSH2 0x708 DUP4 DUP4 PUSH2 0xD47 JUMP JUMPDEST POP POP POP POP JUMP JUMPDEST PUSH0 PUSH2 0x717 PUSH2 0xDD8 JUMP JUMPDEST SWAP1 POP SWAP1 JUMP JUMPDEST PUSH1 0x1 PUSH1 0x1 PUSH1 0xA0 SHL SUB DUP2 AND CALLER EQ PUSH2 0x745 JUMPI PUSH1 0x40 MLOAD PUSH4 0x334BD919 PUSH1 0xE1 SHL DUP2 MSTORE PUSH1 0x4 ADD PUSH1 0x40 MLOAD DUP1 SWAP2 SUB SWAP1 REVERT JUMPDEST PUSH2 0x74F DUP3 DUP3 PUSH2 0xF01 JUMP JUMPDEST POP POP POP JUMP JUMPDEST PUSH32 0x9F2DF0FED2C77648DE5860A4CC508CD0818C85B8B8A1AB4CEEEF8D981C8956A6 PUSH2 0x77E DUP2 PUSH2 0xD3D JUMP JUMPDEST PUSH2 0x74F DUP4 DUP4 PUSH2 0xF6C JUMP JUMPDEST PUSH2 0x792 CALLER DUP3 PUSH2 0xFA0 JUMP JUMPDEST POP JUMP JUMPDEST PUSH2 0x792 CALLER DUP3 PUSH2 0x100F JUMP JUMPDEST PUSH1 0x1 PUSH1 0x1 PUSH1 0xA0 SHL SUB DUP2 AND PUSH0 SWAP1 DUP2 MSTORE PUSH1 0x20 DUP2 SWAP1 MSTORE PUSH1 0x40 DUP2 KECCAK256 SLOAD PUSH2 0x614 JUMP JUMPDEST PUSH2 0x792 CALLER DUP3 PUSH2 0x1043 JUMP JUMPDEST PUSH0 PUSH1 0x1 PUSH1 0x1 PUSH1 0xA0 SHL SUB DUP3 AND PUSH2 0x7F2 JUMPI PUSH1 0x1 PUSH1 0x1 PUSH1 0xA0 SHL SUB DUP3 AND PUSH0 SWAP1 DUP2 MSTORE PUSH1 0x20 DUP2 SWAP1 MSTORE PUSH1 0x40 SWAP1 KECCAK256 SLOAD PUSH2 0x614 JUMP JUMPDEST PUSH1 0x1 PUSH1 0x1 PUSH1 0xA0 SHL SUB DUP3 AND PUSH0 SWAP1 DUP2 MSTORE PUSH1 0xE PUSH1 0x20 SWAP1 DUP2 MSTORE PUSH1 0x40 DUP1 DUP4 KECCAK256 SLOAD PUSH1 0x9 SWAP1 SWAP3 MSTORE SWAP1 SWAP2 KECCAK256 SLOAD PUSH2 0x614 SWAP2 SWAP1 PUSH2 0x1DD5 JUMP JUMPDEST PUSH1 0x40 DUP1 MLOAD PUSH1 0x1 PUSH1 0x1 PUSH1 0xA0 SHL SUB DUP1 DUP7 AND PUSH1 0x20 DUP4 ADD MSTORE DUP5 AND SWAP2 DUP2 ADD SWAP2 SWAP1 SWAP2 MSTORE PUSH1 0x60 DUP2 ADD DUP3 SWAP1 MSTORE PUSH0 SWAP1 PUSH1 0x80 ADD PUSH1 0x40 DUP1 MLOAD PUSH1 0x1F NOT DUP2 DUP5 SUB ADD DUP2 MSTORE SWAP2 DUP2 MSTORE DUP2 MLOAD PUSH1 0x20 SWAP3 DUP4 ADD KECCAK256 PUSH0 DUP2 DUP2 MSTORE PUSH1 0xD SWAP1 SWAP4 MSTORE SWAP2 KECCAK256 SLOAD SWAP1 SWAP2 POP PUSH2 0x8AD JUMPI PUSH1 0x40 MLOAD PUSH3 0x461BCD PUSH1 0xE5 SHL DUP2 MSTORE PUSH1 0x20 PUSH1 0x4 DUP3 ADD MSTORE PUSH1 0x9 PUSH1 0x24 DUP3 ADD MSTORE PUSH9 0x1B9BDD08199BDD5B99 PUSH1 0xBA SHL PUSH1 0x44 DUP3 ADD MSTORE PUSH1 0x64 ADD JUMPDEST PUSH1 0x40 MLOAD DUP1 SWAP2 SUB SWAP1 REVERT JUMPDEST DUP2 PUSH2 0x8CC DUP6 PUSH1 0x1 PUSH1 0x1 PUSH1 0xA0 SHL SUB AND PUSH0 SWAP1 DUP2 MSTORE PUSH1 0x20 DUP2 SWAP1 MSTORE PUSH1 0x40 SWAP1 KECCAK256 SLOAD SWAP1 JUMP JUMPDEST LT ISZERO PUSH2 0x90B JUMPI PUSH1 0x40 MLOAD PUSH3 0x461BCD PUSH1 0xE5 SHL DUP2 MSTORE PUSH1 0x20 PUSH1 0x4 DUP3 ADD MSTORE PUSH1 0xE PUSH1 0x24 DUP3 ADD MSTORE PUSH14 0x4F7574206F662042616C616E6365 PUSH1 0x90 SHL PUSH1 0x44 DUP3 ADD MSTORE PUSH1 0x64 ADD PUSH2 0x8A4 JUMP JUMPDEST PUSH0 DUP2 DUP2 MSTORE PUSH1 0xD PUSH1 0x20 MSTORE PUSH1 0x40 DUP2 KECCAK256 DUP1 SLOAD PUSH1 0x1 SWAP3 SWAP1 PUSH2 0x929 SWAP1 DUP5 SWAP1 PUSH2 0x1DFC JUMP JUMPDEST SWAP1 SWAP2 SSTORE POP PUSH2 0x93A SWAP1 POP DUP5 DUP5 DUP5 PUSH2 0x1102 JUMP JUMPDEST PUSH1 0x40 DUP1 MLOAD PUSH1 0x1 PUSH1 0x1 PUSH1 0xA0 SHL SUB DUP1 DUP8 AND DUP3 MSTORE DUP6 AND PUSH1 0x20 DUP3 ADD MSTORE SWAP1 DUP2 ADD DUP4 SWAP1 MSTORE PUSH32 0x615A90B6CFA77287F9E381F0AED394618BCFA338A2B4039EB03854FD16277F6D SWAP1 PUSH1 0x60 ADD JUMPDEST PUSH1 0x40 MLOAD DUP1 SWAP2 SUB SWAP1 LOG1 POP POP POP POP JUMP JUMPDEST PUSH2 0x997 DUP3 CALLER DUP4 PUSH2 0xC6A JUMP JUMPDEST PUSH2 0x9A1 DUP3 DUP3 PUSH2 0x100F JUMP JUMPDEST POP POP JUMP JUMPDEST PUSH1 0x1 PUSH1 0x1 PUSH1 0xA0 SHL SUB DUP2 AND PUSH0 SWAP1 DUP2 MSTORE PUSH1 0x8 PUSH1 0x20 MSTORE PUSH1 0x40 DUP2 KECCAK256 SLOAD PUSH2 0x614 JUMP JUMPDEST PUSH0 DUP1 MLOAD PUSH1 0x20 PUSH2 0x1E5D DUP4 CODECOPY DUP2 MLOAD SWAP2 MSTORE PUSH2 0x9D9 DUP2 PUSH2 0xD3D JUMP JUMPDEST PUSH2 0x74F DUP4 DUP4 PUSH2 0x1272 JUMP JUMPDEST PUSH0 PUSH1 0x60 DUP1 PUSH0 DUP1 PUSH0 PUSH1 0x60 PUSH2 0x9F4 PUSH2 0x1330 JUMP JUMPDEST PUSH2 0x9FC PUSH2 0x135D JUMP JUMPDEST PUSH1 0x40 DUP1 MLOAD PUSH0 DUP1 DUP3 MSTORE PUSH1 0x20 DUP3 ADD SWAP1 SWAP3 MSTORE PUSH1 0xF PUSH1 0xF8 SHL SWAP12 SWAP4 SWAP11 POP SWAP2 SWAP9 POP CHAINID SWAP8 POP ADDRESS SWAP7 POP SWAP5 POP SWAP3 POP SWAP1 POP JUMP JUMPDEST PUSH0 DUP1 MLOAD PUSH1 0x20 PUSH2 0x1E5D DUP4 CODECOPY DUP2 MLOAD SWAP2 MSTORE PUSH2 0xA3C DUP2 PUSH2 0xD3D JUMP JUMPDEST PUSH2 0x74F DUP4 DUP4 PUSH2 0xFA0 JUMP JUMPDEST PUSH0 SWAP2 DUP3 MSTORE PUSH1 0x5 PUSH1 0x20 SWAP1 DUP2 MSTORE PUSH1 0x40 DUP1 DUP5 KECCAK256 PUSH1 0x1 PUSH1 0x1 PUSH1 0xA0 SHL SUB SWAP4 SWAP1 SWAP4 AND DUP5 MSTORE SWAP2 SWAP1 MSTORE SWAP1 KECCAK256 SLOAD PUSH1 0xFF AND SWAP1 JUMP JUMPDEST PUSH1 0x60 PUSH1 0x4 DUP1 SLOAD PUSH2 0x629 SWAP1 PUSH2 0x1D89 JUMP JUMPDEST PUSH0 DUP1 MLOAD PUSH1 0x20 PUSH2 0x1E5D DUP4 CODECOPY DUP2 MLOAD SWAP2 MSTORE PUSH2 0xA96 DUP2 PUSH2 0xD3D JUMP JUMPDEST PUSH2 0x708 DUP5 DUP5 DUP5 PUSH2 0x138A JUMP JUMPDEST PUSH0 CALLER PUSH2 0x6B7 DUP2 DUP6 DUP6 PUSH2 0xCE0 JUMP JUMPDEST PUSH0 DUP1 MLOAD PUSH1 0x20 PUSH2 0x1E5D DUP4 CODECOPY DUP2 MLOAD SWAP2 MSTORE PUSH2 0xAC5 DUP2 PUSH2 0xD3D JUMP JUMPDEST PUSH2 0xAD1 DUP6 DUP6 DUP6 DUP6 PUSH2 0x1475 JUMP JUMPDEST POP POP POP POP POP JUMP JUMPDEST PUSH2 0x792 CALLER DUP3 PUSH2 0x1272 JUMP JUMPDEST PUSH0 DUP1 MLOAD PUSH1 0x20 PUSH2 0x1E5D DUP4 CODECOPY DUP2 MLOAD SWAP2 MSTORE PUSH2 0xAF9 DUP2 PUSH2 0xD3D JUMP JUMPDEST PUSH2 0x74F DUP4 DUP4 PUSH2 0x1043 JUMP JUMPDEST DUP4 TIMESTAMP GT ISZERO PUSH2 0xB27 JUMPI PUSH1 0x40 MLOAD PUSH4 0x313C8981 PUSH1 0xE1 SHL DUP2 MSTORE PUSH1 0x4 DUP2 ADD DUP6 SWAP1 MSTORE PUSH1 0x24 ADD PUSH2 0x8A4 JUMP JUMPDEST PUSH0 PUSH32 0x6E71EDAE12B1B97F4D1F60370FEF10105FA2FAAE0126114A169C64845D6126C9 DUP9 DUP9 DUP9 PUSH2 0xB72 DUP13 PUSH1 0x1 PUSH1 0x1 PUSH1 0xA0 SHL SUB AND PUSH0 SWAP1 DUP2 MSTORE PUSH1 0x8 PUSH1 0x20 MSTORE PUSH1 0x40 SWAP1 KECCAK256 DUP1 SLOAD PUSH1 0x1 DUP2 ADD SWAP1 SWAP2 SSTORE SWAP1 JUMP JUMPDEST PUSH1 0x40 DUP1 MLOAD PUSH1 0x20 DUP2 ADD SWAP7 SWAP1 SWAP7 MSTORE PUSH1 0x1 PUSH1 0x1 PUSH1 0xA0 SHL SUB SWAP5 DUP6 AND SWAP1 DUP7 ADD MSTORE SWAP3 SWAP1 SWAP2 AND PUSH1 0x60 DUP5 ADD MSTORE PUSH1 0x80 DUP4 ADD MSTORE PUSH1 0xA0 DUP3 ADD MSTORE PUSH1 0xC0 DUP2 ADD DUP7 SWAP1 MSTORE PUSH1 0xE0 ADD PUSH1 0x40 MLOAD PUSH1 0x20 DUP2 DUP4 SUB SUB DUP2 MSTORE SWAP1 PUSH1 0x40 MSTORE DUP1 MLOAD SWAP1 PUSH1 0x20 ADD KECCAK256 SWAP1 POP PUSH0 PUSH2 0xBCC DUP3 PUSH2 0x14B4 JUMP JUMPDEST SWAP1 POP PUSH0 PUSH2 0xBDB DUP3 DUP8 DUP8 DUP8 PUSH2 0x14E0 JUMP JUMPDEST SWAP1 POP DUP10 PUSH1 0x1 PUSH1 0x1 PUSH1 0xA0 SHL SUB AND DUP2 PUSH1 0x1 PUSH1 0x1 PUSH1 0xA0 SHL SUB AND EQ PUSH2 0xC22 JUMPI PUSH1 0x40 MLOAD PUSH4 0x25C00723 PUSH1 0xE1 SHL DUP2 MSTORE PUSH1 0x1 PUSH1 0x1 PUSH1 0xA0 SHL SUB DUP1 DUP4 AND PUSH1 0x4 DUP4 ADD MSTORE DUP12 AND PUSH1 0x24 DUP3 ADD MSTORE PUSH1 0x44 ADD PUSH2 0x8A4 JUMP JUMPDEST PUSH2 0xC2D DUP11 DUP11 DUP11 PUSH2 0xC5D JUMP JUMPDEST POP POP POP POP POP POP POP POP POP POP JUMP JUMPDEST PUSH0 DUP3 DUP2 MSTORE PUSH1 0x5 PUSH1 0x20 MSTORE PUSH1 0x40 SWAP1 KECCAK256 PUSH1 0x1 ADD SLOAD PUSH2 0xC53 DUP2 PUSH2 0xD3D JUMP JUMPDEST PUSH2 0x708 DUP4 DUP4 PUSH2 0xF01 JUMP JUMPDEST PUSH2 0x74F DUP4 DUP4 DUP4 PUSH1 0x1 PUSH2 0x150C JUMP JUMPDEST PUSH1 0x1 PUSH1 0x1 PUSH1 0xA0 SHL SUB DUP4 DUP2 AND PUSH0 SWAP1 DUP2 MSTORE PUSH1 0x1 PUSH1 0x20 SWAP1 DUP2 MSTORE PUSH1 0x40 DUP1 DUP4 KECCAK256 SWAP4 DUP7 AND DUP4 MSTORE SWAP3 SWAP1 MSTORE KECCAK256 SLOAD PUSH0 NOT DUP2 LT ISZERO PUSH2 0x708 JUMPI DUP2 DUP2 LT ISZERO PUSH2 0xCD2 JUMPI PUSH1 0x40 MLOAD PUSH4 0x7DC7A0D9 PUSH1 0xE1 SHL DUP2 MSTORE PUSH1 0x1 PUSH1 0x1 PUSH1 0xA0 SHL SUB DUP5 AND PUSH1 0x4 DUP3 ADD MSTORE PUSH1 0x24 DUP2 ADD DUP3 SWAP1 MSTORE PUSH1 0x44 DUP2 ADD DUP4 SWAP1 MSTORE PUSH1 0x64 ADD PUSH2 0x8A4 JUMP JUMPDEST PUSH2 0x708 DUP5 DUP5 DUP5 DUP5 SUB PUSH0 PUSH2 0x150C JUMP JUMPDEST PUSH1 0x1 PUSH1 0x1 PUSH1 0xA0 SHL SUB DUP4 AND PUSH2 0xD09 JUMPI PUSH1 0x40 MLOAD PUSH4 0x4B637E8F PUSH1 0xE1 SHL DUP2 MSTORE PUSH0 PUSH1 0x4 DUP3 ADD MSTORE PUSH1 0x24 ADD PUSH2 0x8A4 JUMP JUMPDEST PUSH1 0x1 PUSH1 0x1 PUSH1 0xA0 SHL SUB DUP3 AND PUSH2 0xD32 JUMPI PUSH1 0x40 MLOAD PUSH4 0xEC442F05 PUSH1 0xE0 SHL DUP2 MSTORE PUSH0 PUSH1 0x4 DUP3 ADD MSTORE PUSH1 0x24 ADD PUSH2 0x8A4 JUMP JUMPDEST PUSH2 0x74F DUP4 DUP4 DUP4 PUSH2 0x1102 JUMP JUMPDEST PUSH2 0x792 DUP2 CALLER PUSH2 0x15DE JUMP JUMPDEST PUSH0 PUSH2 0xD52 DUP4 DUP4 PUSH2 0xA46 JUMP JUMPDEST PUSH2 0xDD1 JUMPI PUSH0 DUP4 DUP2 MSTORE PUSH1 0x5 PUSH1 0x20 SWAP1 DUP2 MSTORE PUSH1 0x40 DUP1 DUP4 KECCAK256 PUSH1 0x1 PUSH1 0x1 PUSH1 0xA0 SHL SUB DUP7 AND DUP5 MSTORE SWAP1 SWAP2 MSTORE SWAP1 KECCAK256 DUP1 SLOAD PUSH1 0xFF NOT AND PUSH1 0x1 OR SWAP1 SSTORE PUSH2 0xD89 CALLER SWAP1 JUMP JUMPDEST PUSH1 0x1 PUSH1 0x1 PUSH1 0xA0 SHL SUB AND DUP3 PUSH1 0x1 PUSH1 0x1 PUSH1 0xA0 SHL SUB AND DUP5 PUSH32 0x2F8788117E7EFF1D82E926EC794901D17C78024A50270940304540A733656F0D PUSH1 0x40 MLOAD PUSH1 0x40 MLOAD DUP1 SWAP2 SUB SWAP1 LOG4 POP PUSH1 0x1 PUSH2 0x614 JUMP JUMPDEST POP PUSH0 PUSH2 0x614 JUMP JUMPDEST PUSH0 ADDRESS PUSH1 0x1 PUSH1 0x1 PUSH1 0xA0 SHL SUB PUSH32 0x0 AND EQ DUP1 ISZERO PUSH2 0xE30 JUMPI POP PUSH32 0x0 CHAINID EQ JUMPDEST ISZERO PUSH2 0xE5A JUMPI POP PUSH32 0x0 SWAP1 JUMP JUMPDEST PUSH2 0x717 PUSH1 0x40 DUP1 MLOAD PUSH32 0x8B73C3C69BB8FE3D512ECC4CF759CC79239F7B179B0FFACAA9A75D522B39400F PUSH1 0x20 DUP3 ADD MSTORE PUSH32 0x0 SWAP2 DUP2 ADD SWAP2 SWAP1 SWAP2 MSTORE PUSH32 0x0 PUSH1 0x60 DUP3 ADD MSTORE CHAINID PUSH1 0x80 DUP3 ADD MSTORE ADDRESS PUSH1 0xA0 DUP3 ADD MSTORE PUSH0 SWAP1 PUSH1 0xC0 ADD PUSH1 0x40 MLOAD PUSH1 0x20 DUP2 DUP4 SUB SUB DUP2 MSTORE SWAP1 PUSH1 0x40 MSTORE DUP1 MLOAD SWAP1 PUSH1 0x20 ADD KECCAK256 SWAP1 POP SWAP1 JUMP JUMPDEST PUSH0 PUSH2 0xF0C DUP4 DUP4 PUSH2 0xA46 JUMP JUMPDEST ISZERO PUSH2 0xDD1 JUMPI PUSH0 DUP4 DUP2 MSTORE PUSH1 0x5 PUSH1 0x20 SWAP1 DUP2 MSTORE PUSH1 0x40 DUP1 DUP4 KECCAK256 PUSH1 0x1 PUSH1 0x1 PUSH1 0xA0 SHL SUB DUP7 AND DUP1 DUP6 MSTORE SWAP3 MSTORE DUP1 DUP4 KECCAK256 DUP1 SLOAD PUSH1 0xFF NOT AND SWAP1 SSTORE MLOAD CALLER SWAP3 DUP7 SWAP2 PUSH32 0xF6391F5C32D9C69D2A47EA670B442974B53935D1EDC7FD64EB21E047A839171B SWAP2 SWAP1 LOG4 POP PUSH1 0x1 PUSH2 0x614 JUMP JUMPDEST PUSH1 0x1 PUSH1 0x1 PUSH1 0xA0 SHL SUB DUP3 AND PUSH2 0xF95 JUMPI PUSH1 0x40 MLOAD PUSH4 0xEC442F05 PUSH1 0xE0 SHL DUP2 MSTORE PUSH0 PUSH1 0x4 DUP3 ADD MSTORE PUSH1 0x24 ADD PUSH2 0x8A4 JUMP JUMPDEST PUSH2 0x9A1 PUSH0 DUP4 DUP4 PUSH2 0x1102 JUMP JUMPDEST PUSH1 0x1 PUSH1 0x1 PUSH1 0xA0 SHL SUB DUP3 AND PUSH0 SWAP1 DUP2 MSTORE PUSH1 0xC PUSH1 0x20 MSTORE PUSH1 0x40 DUP2 KECCAK256 DUP1 SLOAD DUP4 SWAP3 SWAP1 PUSH2 0xFC7 SWAP1 DUP5 SWAP1 PUSH2 0x1E0F JUMP JUMPDEST SWAP1 SWAP2 SSTORE POP POP PUSH1 0x40 MLOAD DUP2 DUP2 MSTORE PUSH1 0x1 PUSH1 0x1 PUSH1 0xA0 SHL SUB DUP4 AND SWAP1 PUSH32 0xC76F2893C8364E1DC575287B15854A9E3B1500EDFB17C2DF7C4708057A902602 SWAP1 PUSH1 0x20 ADD JUMPDEST PUSH1 0x40 MLOAD DUP1 SWAP2 SUB SWAP1 LOG2 POP POP JUMP JUMPDEST PUSH1 0x1 PUSH1 0x1 PUSH1 0xA0 SHL SUB DUP3 AND PUSH2 0x1038 JUMPI PUSH1 0x40 MLOAD PUSH4 0x4B637E8F PUSH1 0xE1 SHL DUP2 MSTORE PUSH0 PUSH1 0x4 DUP3 ADD MSTORE PUSH1 0x24 ADD PUSH2 0x8A4 JUMP JUMPDEST PUSH2 0x9A1 DUP3 PUSH0 DUP4 PUSH2 0x1102 JUMP JUMPDEST PUSH1 0x1 PUSH1 0x1 PUSH1 0xA0 SHL SUB DUP3 AND PUSH0 SWAP1 DUP2 MSTORE PUSH1 0xC PUSH1 0x20 MSTORE PUSH1 0x40 SWAP1 KECCAK256 SLOAD DUP2 GT ISZERO PUSH2 0x109B JUMPI PUSH1 0x40 MLOAD PUSH3 0x461BCD PUSH1 0xE5 SHL DUP2 MSTORE PUSH1 0x20 PUSH1 0x4 DUP3 ADD MSTORE PUSH1 0xE PUSH1 0x24 DUP3 ADD MSTORE PUSH14 0x1BDD5D081BD9881C995C5D595CDD PUSH1 0x92 SHL PUSH1 0x44 DUP3 ADD MSTORE PUSH1 0x64 ADD PUSH2 0x8A4 JUMP JUMPDEST PUSH1 0x1 PUSH1 0x1 PUSH1 0xA0 SHL SUB DUP3 AND PUSH0 SWAP1 DUP2 MSTORE PUSH1 0xC PUSH1 0x20 MSTORE PUSH1 0x40 DUP2 KECCAK256 DUP1 SLOAD DUP4 SWAP3 SWAP1 PUSH2 0x10C2 SWAP1 DUP5 SWAP1 PUSH2 0x1DFC JUMP JUMPDEST SWAP1 SWAP2 SSTORE POP POP PUSH1 0x40 MLOAD DUP2 DUP2 MSTORE PUSH1 0x1 PUSH1 0x1 PUSH1 0xA0 SHL SUB DUP4 AND SWAP1 PUSH32 0x19E5FD24FCDC74C01AA1DA498F0D20238648EBE4090306DE4366505CA2EC37A4 SWAP1 PUSH1 0x20 ADD PUSH2 0x1003 JUMP JUMPDEST PUSH1 0x1 PUSH1 0x1 PUSH1 0xA0 SHL SUB DUP4 AND PUSH0 SWAP1 DUP2 MSTORE PUSH1 0x20 DUP2 SWAP1 MSTORE PUSH1 0x40 SWAP1 KECCAK256 SLOAD DUP2 GT ISZERO DUP1 PUSH2 0x112F JUMPI POP PUSH1 0x1 PUSH1 0x1 PUSH1 0xA0 SHL SUB DUP4 AND ISZERO JUMPDEST ISZERO PUSH2 0x119D JUMPI PUSH2 0x113F DUP4 DUP4 DUP4 PUSH2 0x1617 JUMP JUMPDEST PUSH1 0x1 PUSH1 0x1 PUSH1 0xA0 SHL SUB DUP3 AND PUSH0 SWAP1 DUP2 MSTORE PUSH1 0xE PUSH1 0x20 MSTORE PUSH1 0x40 DUP2 KECCAK256 DUP1 SLOAD DUP4 SWAP3 SWAP1 PUSH2 0x1166 SWAP1 DUP5 SWAP1 PUSH2 0x1DD5 JUMP JUMPDEST SWAP1 SWAP2 SSTORE POP POP PUSH1 0x1 PUSH1 0x1 PUSH1 0xA0 SHL SUB DUP4 AND PUSH0 SWAP1 DUP2 MSTORE PUSH1 0xE PUSH1 0x20 MSTORE PUSH1 0x40 DUP2 KECCAK256 DUP1 SLOAD DUP4 SWAP3 SWAP1 PUSH2 0x1192 SWAP1 DUP5 SWAP1 PUSH2 0x1E22 JUMP JUMPDEST SWAP1 SWAP2 SSTORE POP PUSH2 0x74F SWAP1 POP JUMP JUMPDEST PUSH1 0x40 DUP1 MLOAD PUSH1 0x1 PUSH1 0x1 PUSH1 0xA0 SHL SUB DUP1 DUP7 AND PUSH1 0x20 DUP4 ADD MSTORE DUP5 AND SWAP2 DUP2 ADD SWAP2 SWAP1 SWAP2 MSTORE PUSH1 0x60 DUP2 ADD DUP3 SWAP1 MSTORE PUSH0 SWAP1 PUSH1 0x80 ADD PUSH1 0x40 MLOAD PUSH1 0x20 DUP2 DUP4 SUB SUB DUP2 MSTORE SWAP1 PUSH1 0x40 MSTORE DUP1 MLOAD SWAP1 PUSH1 0x20 ADD KECCAK256 SWAP1 POP PUSH1 0x1 PUSH1 0xD PUSH0 DUP4 DUP2 MSTORE PUSH1 0x20 ADD SWAP1 DUP2 MSTORE PUSH1 0x20 ADD PUSH0 KECCAK256 PUSH0 DUP3 DUP3 SLOAD PUSH2 0x11FF SWAP2 SWAP1 PUSH2 0x1E0F JUMP JUMPDEST SWAP1 SWAP2 SSTORE POP PUSH32 0xC8BBB0367916B8349AF28EFC8447FCE2E5ACDCDFAE70451BB588466A6BC87134 SWAP1 POP DUP5 DUP5 DUP5 PUSH2 0x1247 DUP4 PUSH1 0x1 PUSH1 0x1 PUSH1 0xA0 SHL SUB AND PUSH0 SWAP1 DUP2 MSTORE PUSH1 0x20 DUP2 SWAP1 MSTORE PUSH1 0x40 SWAP1 KECCAK256 SLOAD SWAP1 JUMP JUMPDEST PUSH1 0x40 DUP1 MLOAD PUSH1 0x1 PUSH1 0x1 PUSH1 0xA0 SHL SUB SWAP6 DUP7 AND DUP2 MSTORE SWAP5 SWAP1 SWAP4 AND PUSH1 0x20 DUP6 ADD MSTORE SWAP2 DUP4 ADD MSTORE PUSH1 0x60 DUP3 ADD MSTORE PUSH1 0x80 ADD PUSH2 0x97E JUMP JUMPDEST PUSH1 0x1 PUSH1 0x1 PUSH1 0xA0 SHL SUB DUP3 AND PUSH0 SWAP1 DUP2 MSTORE PUSH1 0x20 DUP2 SWAP1 MSTORE PUSH1 0x40 SWAP1 KECCAK256 SLOAD DUP2 GT ISZERO PUSH2 0x12CA JUMPI PUSH1 0x40 MLOAD PUSH3 0x461BCD PUSH1 0xE5 SHL DUP2 MSTORE PUSH1 0x20 PUSH1 0x4 DUP3 ADD MSTORE PUSH1 0xE PUSH1 0x24 DUP3 ADD MSTORE PUSH14 0x6F7574206F662062616C616E6365 PUSH1 0x90 SHL PUSH1 0x44 DUP3 ADD MSTORE PUSH1 0x64 ADD PUSH2 0x8A4 JUMP JUMPDEST PUSH2 0x12D4 DUP3 DUP3 PUSH2 0x100F JUMP JUMPDEST PUSH1 0x1 PUSH1 0x1 PUSH1 0xA0 SHL SUB DUP3 AND PUSH0 SWAP1 DUP2 MSTORE PUSH1 0xA PUSH1 0x20 MSTORE PUSH1 0x40 DUP2 KECCAK256 DUP1 SLOAD DUP4 SWAP3 SWAP1 PUSH2 0x12FB SWAP1 DUP5 SWAP1 PUSH2 0x1E0F JUMP JUMPDEST SWAP1 SWAP2 SSTORE POP POP PUSH1 0x1 PUSH1 0x1 PUSH1 0xA0 SHL SUB DUP3 AND PUSH0 SWAP1 DUP2 MSTORE PUSH1 0xE PUSH1 0x20 MSTORE PUSH1 0x40 DUP2 KECCAK256 DUP1 SLOAD DUP4 SWAP3 SWAP1 PUSH2 0x1327 SWAP1 DUP5 SWAP1 PUSH2 0x1DD5 JUMP JUMPDEST SWAP1 SWAP2 SSTORE POP POP POP POP JUMP JUMPDEST PUSH1 0x60 PUSH2 0x717 PUSH32 0x0 PUSH1 0x6 PUSH2 0x173D JUMP JUMPDEST PUSH1 0x60 PUSH2 0x717 PUSH32 0x0 PUSH1 0x7 PUSH2 0x173D JUMP JUMPDEST PUSH1 0x1 PUSH1 0x1 PUSH1 0xA0 SHL SUB DUP4 AND PUSH0 SWAP1 DUP2 MSTORE PUSH1 0xC PUSH1 0x20 MSTORE PUSH1 0x40 SWAP1 KECCAK256 SLOAD DUP3 GT ISZERO PUSH2 0x13E2 JUMPI PUSH1 0x40 MLOAD PUSH3 0x461BCD PUSH1 0xE5 SHL DUP2 MSTORE PUSH1 0x20 PUSH1 0x4 DUP3 ADD MSTORE PUSH1 0xE PUSH1 0x24 DUP3 ADD MSTORE PUSH14 0x1BDD5D081BD9881C995C5D595CDD PUSH1 0x92 SHL PUSH1 0x44 DUP3 ADD MSTORE PUSH1 0x64 ADD PUSH2 0x8A4 JUMP JUMPDEST PUSH2 0x13EC DUP4 DUP4 PUSH2 0xF6C JUMP JUMPDEST PUSH1 0x1 PUSH1 0x1 PUSH1 0xA0 SHL SUB DUP4 AND PUSH0 SWAP1 DUP2 MSTORE PUSH1 0xB PUSH1 0x20 MSTORE PUSH1 0x40 DUP2 KECCAK256 DUP1 SLOAD DUP5 SWAP3 SWAP1 PUSH2 0x1413 SWAP1 DUP5 SWAP1 PUSH2 0x1E0F JUMP JUMPDEST SWAP1 SWAP2 SSTORE POP POP PUSH1 0x1 PUSH1 0x1 PUSH1 0xA0 SHL SUB DUP4 AND PUSH0 SWAP1 DUP2 MSTORE PUSH1 0xC PUSH1 0x20 MSTORE PUSH1 0x40 DUP2 KECCAK256 DUP1 SLOAD DUP5 SWAP3 SWAP1 PUSH2 0x143F SWAP1 DUP5 SWAP1 PUSH2 0x1DFC JUMP JUMPDEST SWAP1 SWAP2 SSTORE POP POP PUSH1 0x1 PUSH1 0x1 PUSH1 0xA0 SHL SUB DUP4 AND PUSH0 SWAP1 DUP2 MSTORE PUSH1 0xE PUSH1 0x20 MSTORE PUSH1 0x40 DUP2 KECCAK256 DUP1 SLOAD DUP5 SWAP3 SWAP1 PUSH2 0x146B SWAP1 DUP5 SWAP1 PUSH2 0x1E22 JUMP JUMPDEST SWAP1 SWAP2 SSTORE POP POP POP POP POP JUMP JUMPDEST PUSH1 0x1 PUSH1 0x1 PUSH1 0xA0 SHL SUB DUP5 AND PUSH0 SWAP1 DUP2 MSTORE PUSH1 0x9 PUSH1 0x20 SWAP1 DUP2 MSTORE PUSH1 0x40 DUP1 DUP4 KECCAK256 DUP7 SWAP1 SSTORE PUSH1 0xE SWAP1 SWAP2 MSTORE DUP2 KECCAK256 DUP1 SLOAD DUP5 SWAP3 SWAP1 PUSH2 0x14A9 SWAP1 DUP5 SWAP1 PUSH2 0x1E22 JUMP JUMPDEST SWAP1 SWAP2 SSTORE POP POP POP POP POP POP JUMP JUMPDEST PUSH0 PUSH2 0x614 PUSH2 0x14C0 PUSH2 0xDD8 JUMP JUMPDEST DUP4 PUSH1 0x40 MLOAD PUSH2 0x1901 PUSH1 0xF0 SHL DUP2 MSTORE PUSH1 0x2 DUP2 ADD SWAP3 SWAP1 SWAP3 MSTORE PUSH1 0x22 DUP3 ADD MSTORE PUSH1 0x42 SWAP1 KECCAK256 SWAP1 JUMP JUMPDEST PUSH0 DUP1 PUSH0 DUP1 PUSH2 0x14F0 DUP9 DUP9 DUP9 DUP9 PUSH2 0x17E6 JUMP JUMPDEST SWAP3 POP SWAP3 POP SWAP3 POP PUSH2 0x1500 DUP3 DUP3 PUSH2 0x18AE JUMP JUMPDEST POP SWAP1 SWAP7 SWAP6 POP POP POP POP POP POP JUMP JUMPDEST PUSH1 0x1 PUSH1 0x1 PUSH1 0xA0 SHL SUB DUP5 AND PUSH2 0x1535 JUMPI PUSH1 0x40 MLOAD PUSH4 0xE602DF05 PUSH1 0xE0 SHL DUP2 MSTORE PUSH0 PUSH1 0x4 DUP3 ADD MSTORE PUSH1 0x24 ADD PUSH2 0x8A4 JUMP JUMPDEST PUSH1 0x1 PUSH1 0x1 PUSH1 0xA0 SHL SUB DUP4 AND PUSH2 0x155E JUMPI PUSH1 0x40 MLOAD PUSH4 0x4A1406B1 PUSH1 0xE1 SHL DUP2 MSTORE PUSH0 PUSH1 0x4 DUP3 ADD MSTORE PUSH1 0x24 ADD PUSH2 0x8A4 JUMP JUMPDEST PUSH1 0x1 PUSH1 0x1 PUSH1 0xA0 SHL SUB DUP1 DUP6 AND PUSH0 SWAP1 DUP2 MSTORE PUSH1 0x1 PUSH1 0x20 SWAP1 DUP2 MSTORE PUSH1 0x40 DUP1 DUP4 KECCAK256 SWAP4 DUP8 AND DUP4 MSTORE SWAP3 SWAP1 MSTORE KECCAK256 DUP3 SWAP1 SSTORE DUP1 ISZERO PUSH2 0x708 JUMPI DUP3 PUSH1 0x1 PUSH1 0x1 PUSH1 0xA0 SHL SUB AND DUP5 PUSH1 0x1 PUSH1 0x1 PUSH1 0xA0 SHL SUB AND PUSH32 0x8C5BE1E5EBEC7D5BD14F71427D1E84F3DD0314C0F7B2291E5B200AC8C7C3B925 DUP5 PUSH1 0x40 MLOAD PUSH2 0x15D0 SWAP2 DUP2 MSTORE PUSH1 0x20 ADD SWAP1 JUMP JUMPDEST PUSH1 0x40 MLOAD DUP1 SWAP2 SUB SWAP1 LOG3 POP POP POP POP JUMP JUMPDEST PUSH2 0x15E8 DUP3 DUP3 PUSH2 0xA46 JUMP JUMPDEST PUSH2 0x9A1 JUMPI PUSH1 0x40 MLOAD PUSH4 0xE2517D3F PUSH1 0xE0 SHL DUP2 MSTORE PUSH1 0x1 PUSH1 0x1 PUSH1 0xA0 SHL SUB DUP3 AND PUSH1 0x4 DUP3 ADD MSTORE PUSH1 0x24 DUP2 ADD DUP4 SWAP1 MSTORE PUSH1 0x44 ADD PUSH2 0x8A4 JUMP JUMPDEST PUSH1 0x1 PUSH1 0x1 PUSH1 0xA0 SHL SUB DUP4 AND PUSH2 0x1641 JUMPI DUP1 PUSH1 0x2 PUSH0 DUP3 DUP3 SLOAD PUSH2 0x1636 SWAP2 SWAP1 PUSH2 0x1E0F JUMP JUMPDEST SWAP1 SWAP2 SSTORE POP PUSH2 0x16B1 SWAP1 POP JUMP JUMPDEST PUSH1 0x1 PUSH1 0x1 PUSH1 0xA0 SHL SUB DUP4 AND PUSH0 SWAP1 DUP2 MSTORE PUSH1 0x20 DUP2 SWAP1 MSTORE PUSH1 0x40 SWAP1 KECCAK256 SLOAD DUP2 DUP2 LT ISZERO PUSH2 0x1693 JUMPI PUSH1 0x40 MLOAD PUSH4 0x391434E3 PUSH1 0xE2 SHL DUP2 MSTORE PUSH1 0x1 PUSH1 0x1 PUSH1 0xA0 SHL SUB DUP6 AND PUSH1 0x4 DUP3 ADD MSTORE PUSH1 0x24 DUP2 ADD DUP3 SWAP1 MSTORE PUSH1 0x44 DUP2 ADD DUP4 SWAP1 MSTORE PUSH1 0x64 ADD PUSH2 0x8A4 JUMP JUMPDEST PUSH1 0x1 PUSH1 0x1 PUSH1 0xA0 SHL SUB DUP5 AND PUSH0 SWAP1 DUP2 MSTORE PUSH1 0x20 DUP2 SWAP1 MSTORE PUSH1 0x40 SWAP1 KECCAK256 SWAP1 DUP3 SWAP1 SUB SWAP1 SSTORE JUMPDEST PUSH1 0x1 PUSH1 0x1 PUSH1 0xA0 SHL SUB DUP3 AND PUSH2 0x16CD JUMPI PUSH1 0x2 DUP1 SLOAD DUP3 SWAP1 SUB SWAP1 SSTORE PUSH2 0x16EB JUMP JUMPDEST PUSH1 0x1 PUSH1 0x1 PUSH1 0xA0 SHL SUB DUP3 AND PUSH0 SWAP1 DUP2 MSTORE PUSH1 0x20 DUP2 SWAP1 MSTORE PUSH1 0x40 SWAP1 KECCAK256 DUP1 SLOAD DUP3 ADD SWAP1 SSTORE JUMPDEST DUP2 PUSH1 0x1 PUSH1 0x1 PUSH1 0xA0 SHL SUB AND DUP4 PUSH1 0x1 PUSH1 0x1 PUSH1 0xA0 SHL SUB AND PUSH32 0xDDF252AD1BE2C89B69C2B068FC378DAA952BA7F163C4A11628F55A4DF523B3EF DUP4 PUSH1 0x40 MLOAD PUSH2 0x1730 SWAP2 DUP2 MSTORE PUSH1 0x20 ADD SWAP1 JUMP JUMPDEST PUSH1 0x40 MLOAD DUP1 SWAP2 SUB SWAP1 LOG3 POP POP POP JUMP JUMPDEST PUSH1 0x60 PUSH1 0xFF DUP4 EQ PUSH2 0x1757 JUMPI PUSH2 0x1750 DUP4 PUSH2 0x1966 JUMP JUMPDEST SWAP1 POP PUSH2 0x614 JUMP JUMPDEST DUP2 DUP1 SLOAD PUSH2 0x1763 SWAP1 PUSH2 0x1D89 JUMP JUMPDEST DUP1 PUSH1 0x1F ADD PUSH1 0x20 DUP1 SWAP2 DIV MUL PUSH1 0x20 ADD PUSH1 0x40 MLOAD SWAP1 DUP2 ADD PUSH1 0x40 MSTORE DUP1 SWAP3 SWAP2 SWAP1 DUP2 DUP2 MSTORE PUSH1 0x20 ADD DUP3 DUP1 SLOAD PUSH2 0x178F SWAP1 PUSH2 0x1D89 JUMP JUMPDEST DUP1 ISZERO PUSH2 0x17DA JUMPI DUP1 PUSH1 0x1F LT PUSH2 0x17B1 JUMPI PUSH2 0x100 DUP1 DUP4 SLOAD DIV MUL DUP4 MSTORE SWAP2 PUSH1 0x20 ADD SWAP2 PUSH2 0x17DA JUMP JUMPDEST DUP3 ADD SWAP2 SWAP1 PUSH0 MSTORE PUSH1 0x20 PUSH0 KECCAK256 SWAP1 JUMPDEST DUP2 SLOAD DUP2 MSTORE SWAP1 PUSH1 0x1 ADD SWAP1 PUSH1 0x20 ADD DUP1 DUP4 GT PUSH2 0x17BD JUMPI DUP3 SWAP1 SUB PUSH1 0x1F AND DUP3 ADD SWAP2 JUMPDEST POP POP POP POP POP SWAP1 POP PUSH2 0x614 JUMP JUMPDEST PUSH0 DUP1 DUP1 PUSH32 0x7FFFFFFFFFFFFFFFFFFFFFFFFFFFFFFF5D576E7357A4501DDFE92F46681B20A0 DUP5 GT ISZERO PUSH2 0x181F JUMPI POP PUSH0 SWAP2 POP PUSH1 0x3 SWAP1 POP DUP3 PUSH2 0x18A4 JUMP JUMPDEST PUSH1 0x40 DUP1 MLOAD PUSH0 DUP1 DUP3 MSTORE PUSH1 0x20 DUP3 ADD DUP1 DUP5 MSTORE DUP11 SWAP1 MSTORE PUSH1 0xFF DUP10 AND SWAP3 DUP3 ADD SWAP3 SWAP1 SWAP3 MSTORE PUSH1 0x60 DUP2 ADD DUP8 SWAP1 MSTORE PUSH1 0x80 DUP2 ADD DUP7 SWAP1 MSTORE PUSH1 0x1 SWAP1 PUSH1 0xA0 ADD PUSH1 0x20 PUSH1 0x40 MLOAD PUSH1 0x20 DUP2 SUB SWAP1 DUP1 DUP5 SUB SWAP1 DUP6 GAS STATICCALL ISZERO DUP1 ISZERO PUSH2 0x1870 JUMPI RETURNDATASIZE PUSH0 DUP1 RETURNDATACOPY RETURNDATASIZE PUSH0 REVERT JUMPDEST POP POP PUSH1 0x40 MLOAD PUSH1 0x1F NOT ADD MLOAD SWAP2 POP POP PUSH1 0x1 PUSH1 0x1 PUSH1 0xA0 SHL SUB DUP2 AND PUSH2 0x189B JUMPI POP PUSH0 SWAP3 POP PUSH1 0x1 SWAP2 POP DUP3 SWAP1 POP PUSH2 0x18A4 JUMP JUMPDEST SWAP3 POP PUSH0 SWAP2 POP DUP2 SWAP1 POP JUMPDEST SWAP5 POP SWAP5 POP SWAP5 SWAP2 POP POP JUMP JUMPDEST PUSH0 DUP3 PUSH1 0x3 DUP2 GT ISZERO PUSH2 0x18C1 JUMPI PUSH2 0x18C1 PUSH2 0x1E48 JUMP JUMPDEST SUB PUSH2 0x18CA JUMPI POP POP JUMP JUMPDEST PUSH1 0x1 DUP3 PUSH1 0x3 DUP2 GT ISZERO PUSH2 0x18DE JUMPI PUSH2 0x18DE PUSH2 0x1E48 JUMP JUMPDEST SUB PUSH2 0x18FC JUMPI PUSH1 0x40 MLOAD PUSH4 0xF645EEDF PUSH1 0xE0 SHL DUP2 MSTORE PUSH1 0x4 ADD PUSH1 0x40 MLOAD DUP1 SWAP2 SUB SWAP1 REVERT JUMPDEST PUSH1 0x2 DUP3 PUSH1 0x3 DUP2 GT ISZERO PUSH2 0x1910 JUMPI PUSH2 0x1910 PUSH2 0x1E48 JUMP JUMPDEST SUB PUSH2 0x1931 JUMPI PUSH1 0x40 MLOAD PUSH4 0xFCE698F7 PUSH1 0xE0 SHL DUP2 MSTORE PUSH1 0x4 DUP2 ADD DUP3 SWAP1 MSTORE PUSH1 0x24 ADD PUSH2 0x8A4 JUMP JUMPDEST PUSH1 0x3 DUP3 PUSH1 0x3 DUP2 GT ISZERO PUSH2 0x1945 JUMPI PUSH2 0x1945 PUSH2 0x1E48 JUMP JUMPDEST SUB PUSH2 0x9A1 JUMPI PUSH1 0x40 MLOAD PUSH4 0x35E2F383 PUSH1 0xE2 SHL DUP2 MSTORE PUSH1 0x4 DUP2 ADD DUP3 SWAP1 MSTORE PUSH1 0x24 ADD PUSH2 0x8A4 JUMP JUMPDEST PUSH1 0x60 PUSH0 PUSH2 0x1972 DUP4 PUSH2 0x19A3 JUMP JUMPDEST PUSH1 0x40 DUP1 MLOAD PUSH1 0x20 DUP1 DUP3 MSTORE DUP2 DUP4 ADD SWAP1 SWAP3 MSTORE SWAP2 SWAP3 POP PUSH0 SWAP2 SWAP1 PUSH1 0x20 DUP3 ADD DUP2 DUP1 CALLDATASIZE DUP4 CALLDATACOPY POP POP POP SWAP2 DUP3 MSTORE POP PUSH1 0x20 DUP2 ADD SWAP3 SWAP1 SWAP3 MSTORE POP SWAP1 JUMP JUMPDEST PUSH0 PUSH1 0xFF DUP3 AND PUSH1 0x1F DUP2 GT ISZERO PUSH2 0x614 JUMPI PUSH1 0x40 MLOAD PUSH4 0x2CD44AC3 PUSH1 0xE2 SHL DUP2 MSTORE PUSH1 0x4 ADD PUSH1 0x40 MLOAD DUP1 SWAP2 SUB SWAP1 REVERT JUMPDEST PUSH0 PUSH1 0x20 DUP3 DUP5 SUB SLT ISZERO PUSH2 0x19DA JUMPI PUSH0 DUP1 REVERT JUMPDEST DUP2 CALLDATALOAD PUSH1 0x1 PUSH1 0x1 PUSH1 0xE0 SHL SUB NOT DUP2 AND DUP2 EQ PUSH2 0x19F1 JUMPI PUSH0 DUP1 REVERT JUMPDEST SWAP4 SWAP3 POP POP POP JUMP JUMPDEST PUSH0 DUP2 MLOAD DUP1 DUP5 MSTORE DUP1 PUSH1 0x20 DUP5 ADD PUSH1 0x20 DUP7 ADD MCOPY PUSH0 PUSH1 0x20 DUP3 DUP7 ADD ADD MSTORE PUSH1 0x20 PUSH1 0x1F NOT PUSH1 0x1F DUP4 ADD AND DUP6 ADD ADD SWAP2 POP POP SWAP3 SWAP2 POP POP JUMP JUMPDEST PUSH1 0x20 DUP2 MSTORE PUSH0 PUSH2 0x19F1 PUSH1 0x20 DUP4 ADD DUP5 PUSH2 0x19F8 JUMP JUMPDEST DUP1 CALLDATALOAD PUSH1 0x1 PUSH1 0x1 PUSH1 0xA0 SHL SUB DUP2 AND DUP2 EQ PUSH2 0x1A4E JUMPI PUSH0 DUP1 REVERT JUMPDEST SWAP2 SWAP1 POP JUMP JUMPDEST PUSH0 DUP1 PUSH1 0x40 DUP4 DUP6 SUB SLT ISZERO PUSH2 0x1A64 JUMPI PUSH0 DUP1 REVERT JUMPDEST PUSH2 0x1A6D DUP4 PUSH2 0x1A38 JUMP JUMPDEST SWAP5 PUSH1 0x20 SWAP4 SWAP1 SWAP4 ADD CALLDATALOAD SWAP4 POP POP POP JUMP JUMPDEST PUSH0 PUSH1 0x20 DUP3 DUP5 SUB SLT ISZERO PUSH2 0x1A8B JUMPI PUSH0 DUP1 REVERT JUMPDEST PUSH2 0x19F1 DUP3 PUSH2 0x1A38 JUMP JUMPDEST PUSH0 DUP1 PUSH0 PUSH1 0x60 DUP5 DUP7 SUB SLT ISZERO PUSH2 0x1AA6 JUMPI PUSH0 DUP1 REVERT JUMPDEST PUSH2 0x1AAF DUP5 PUSH2 0x1A38 JUMP JUMPDEST SWAP3 POP PUSH2 0x1ABD PUSH1 0x20 DUP6 ADD PUSH2 0x1A38 JUMP JUMPDEST SWAP3 SWAP6 SWAP3 SWAP5 POP POP POP PUSH1 0x40 SWAP2 SWAP1 SWAP2 ADD CALLDATALOAD SWAP1 JUMP JUMPDEST PUSH0 PUSH1 0x20 DUP3 DUP5 SUB SLT ISZERO PUSH2 0x1ADE JUMPI PUSH0 DUP1 REVERT JUMPDEST POP CALLDATALOAD SWAP2 SWAP1 POP JUMP JUMPDEST PUSH0 DUP1 PUSH1 0x40 DUP4 DUP6 SUB SLT ISZERO PUSH2 0x1AF6 JUMPI PUSH0 DUP1 REVERT JUMPDEST DUP3 CALLDATALOAD SWAP2 POP PUSH2 0x1B06 PUSH1 0x20 DUP5 ADD PUSH2 0x1A38 JUMP JUMPDEST SWAP1 POP SWAP3 POP SWAP3 SWAP1 POP JUMP JUMPDEST PUSH1 0xFF PUSH1 0xF8 SHL DUP9 AND DUP2 MSTORE PUSH1 0xE0 PUSH1 0x20 DUP3 ADD MSTORE PUSH0 PUSH2 0x1B2D PUSH1 0xE0 DUP4 ADD DUP10 PUSH2 0x19F8 JUMP JUMPDEST DUP3 DUP2 SUB PUSH1 0x40 DUP5 ADD MSTORE PUSH2 0x1B3F DUP2 DUP10 PUSH2 0x19F8 JUMP JUMPDEST PUSH1 0x60 DUP5 ADD DUP9 SWAP1 MSTORE PUSH1 0x1 PUSH1 0x1 PUSH1 0xA0 SHL SUB DUP8 AND PUSH1 0x80 DUP6 ADD MSTORE PUSH1 0xA0 DUP5 ADD DUP7 SWAP1 MSTORE DUP4 DUP2 SUB PUSH1 0xC0 DUP6 ADD MSTORE DUP5 MLOAD DUP1 DUP3 MSTORE PUSH1 0x20 DUP1 DUP8 ADD SWAP4 POP SWAP1 SWAP2 ADD SWAP1 PUSH0 JUMPDEST DUP2 DUP2 LT ISZERO PUSH2 0x1B94 JUMPI DUP4 MLOAD DUP4 MSTORE PUSH1 0x20 SWAP4 DUP5 ADD SWAP4 SWAP1 SWAP3 ADD SWAP2 PUSH1 0x1 ADD PUSH2 0x1B76 JUMP JUMPDEST POP SWAP1 SWAP12 SWAP11 POP POP POP POP POP POP POP POP POP POP POP JUMP JUMPDEST PUSH4 0x4E487B71 PUSH1 0xE0 SHL PUSH0 MSTORE PUSH1 0x41 PUSH1 0x4 MSTORE PUSH1 0x24 PUSH0 REVERT JUMPDEST PUSH0 DUP3 PUSH1 0x1F DUP4 ADD SLT PUSH2 0x1BC8 JUMPI PUSH0 DUP1 REVERT JUMPDEST DUP2 CALLDATALOAD PUSH8 0xFFFFFFFFFFFFFFFF DUP2 GT ISZERO PUSH2 0x1BE2 JUMPI PUSH2 0x1BE2 PUSH2 0x1BA5 JUMP JUMPDEST PUSH1 0x40 MLOAD PUSH1 0x1F DUP3 ADD PUSH1 0x1F NOT SWAP1 DUP2 AND PUSH1 0x3F ADD AND DUP2 ADD PUSH8 0xFFFFFFFFFFFFFFFF DUP2 GT DUP3 DUP3 LT OR ISZERO PUSH2 0x1C11 JUMPI PUSH2 0x1C11 PUSH2 0x1BA5 JUMP JUMPDEST PUSH1 0x40 MSTORE DUP2 DUP2 MSTORE DUP4 DUP3 ADD PUSH1 0x20 ADD DUP6 LT ISZERO PUSH2 0x1C28 JUMPI PUSH0 DUP1 REVERT JUMPDEST DUP2 PUSH1 0x20 DUP6 ADD PUSH1 0x20 DUP4 ADD CALLDATACOPY PUSH0 SWAP2 DUP2 ADD PUSH1 0x20 ADD SWAP2 SWAP1 SWAP2 MSTORE SWAP4 SWAP3 POP POP POP JUMP JUMPDEST PUSH0 DUP1 PUSH0 PUSH1 0x60 DUP5 DUP7 SUB SLT ISZERO PUSH2 0x1C56 JUMPI PUSH0 DUP1 REVERT JUMPDEST PUSH2 0x1C5F DUP5 PUSH2 0x1A38 JUMP JUMPDEST SWAP3 POP PUSH1 0x20 DUP5 ADD CALLDATALOAD SWAP2 POP PUSH1 0x40 DUP5 ADD CALLDATALOAD PUSH8 0xFFFFFFFFFFFFFFFF DUP2 GT ISZERO PUSH2 0x1C81 JUMPI PUSH0 DUP1 REVERT JUMPDEST PUSH2 0x1C8D DUP7 DUP3 DUP8 ADD PUSH2 0x1BB9 JUMP JUMPDEST SWAP2 POP POP SWAP3 POP SWAP3 POP SWAP3 JUMP JUMPDEST PUSH0 DUP1 PUSH0 DUP1 PUSH1 0x80 DUP6 DUP8 SUB SLT ISZERO PUSH2 0x1CAA JUMPI PUSH0 DUP1 REVERT JUMPDEST PUSH2 0x1CB3 DUP6 PUSH2 0x1A38 JUMP JUMPDEST SWAP4 POP PUSH1 0x20 DUP6 ADD CALLDATALOAD SWAP3 POP PUSH1 0x40 DUP6 ADD CALLDATALOAD SWAP2 POP PUSH1 0x60 DUP6 ADD CALLDATALOAD PUSH8 0xFFFFFFFFFFFFFFFF DUP2 GT ISZERO PUSH2 0x1CDC JUMPI PUSH0 DUP1 REVERT JUMPDEST PUSH2 0x1CE8 DUP8 DUP3 DUP9 ADD PUSH2 0x1BB9 JUMP JUMPDEST SWAP2 POP POP SWAP3 SWAP6 SWAP2 SWAP5 POP SWAP3 POP JUMP JUMPDEST PUSH0 DUP1 PUSH0 DUP1 PUSH0 DUP1 PUSH0 PUSH1 0xE0 DUP9 DUP11 SUB SLT ISZERO PUSH2 0x1D0A JUMPI PUSH0 DUP1 REVERT JUMPDEST PUSH2 0x1D13 DUP9 PUSH2 0x1A38 JUMP JUMPDEST SWAP7 POP PUSH2 0x1D21 PUSH1 0x20 DUP10 ADD PUSH2 0x1A38 JUMP JUMPDEST SWAP6 POP PUSH1 0x40 DUP9 ADD CALLDATALOAD SWAP5 POP PUSH1 0x60 DUP9 ADD CALLDATALOAD SWAP4 POP PUSH1 0x80 DUP9 ADD CALLDATALOAD PUSH1 0xFF DUP2 AND DUP2 EQ PUSH2 0x1D44 JUMPI PUSH0 DUP1 REVERT JUMPDEST SWAP7 SWAP10 SWAP6 SWAP9 POP SWAP4 SWAP7 SWAP3 SWAP6 SWAP5 PUSH1 0xA0 DUP5 ADD CALLDATALOAD SWAP5 POP PUSH1 0xC0 SWAP1 SWAP4 ADD CALLDATALOAD SWAP3 SWAP2 POP POP JUMP JUMPDEST PUSH0 DUP1 PUSH1 0x40 DUP4 DUP6 SUB SLT ISZERO PUSH2 0x1D72 JUMPI PUSH0 DUP1 REVERT JUMPDEST PUSH2 0x1D7B DUP4 PUSH2 0x1A38 JUMP JUMPDEST SWAP2 POP PUSH2 0x1B06 PUSH1 0x20 DUP5 ADD PUSH2 0x1A38 JUMP JUMPDEST PUSH1 0x1 DUP2 DUP2 SHR SWAP1 DUP3 AND DUP1 PUSH2 0x1D9D JUMPI PUSH1 0x7F DUP3 AND SWAP2 POP JUMPDEST PUSH1 0x20 DUP3 LT DUP2 SUB PUSH2 0x1DBB JUMPI PUSH4 0x4E487B71 PUSH1 0xE0 SHL PUSH0 MSTORE PUSH1 0x22 PUSH1 0x4 MSTORE PUSH1 0x24 PUSH0 REVERT JUMPDEST POP SWAP2 SWAP1 POP JUMP JUMPDEST PUSH4 0x4E487B71 PUSH1 0xE0 SHL PUSH0 MSTORE PUSH1 0x11 PUSH1 0x4 MSTORE PUSH1 0x24 PUSH0 REVERT JUMPDEST DUP1 DUP3 ADD DUP3 DUP2 SLT PUSH0 DUP4 SLT DUP1 ISZERO DUP3 AND DUP3 ISZERO DUP3 AND OR ISZERO PUSH2 0x1DF4 JUMPI PUSH2 0x1DF4 PUSH2 0x1DC1 JUMP JUMPDEST POP POP SWAP3 SWAP2 POP POP JUMP JUMPDEST DUP2 DUP2 SUB DUP2 DUP2 GT ISZERO PUSH2 0x614 JUMPI PUSH2 0x614 PUSH2 0x1DC1 JUMP JUMPDEST DUP1 DUP3 ADD DUP1 DUP3 GT ISZERO PUSH2 0x614 JUMPI PUSH2 0x614 PUSH2 0x1DC1 JUMP JUMPDEST DUP2 DUP2 SUB PUSH0 DUP4 SLT DUP1 ISZERO DUP4 DUP4 SGT AND DUP4 DUP4 SLT DUP3 AND OR ISZERO PUSH2 0x1E41 JUMPI PUSH2 0x1E41 PUSH2 0x1DC1 JUMP JUMPDEST POP SWAP3 SWAP2 POP POP JUMP JUMPDEST PUSH4 0x4E487B71 PUSH1 0xE0 SHL PUSH0 MSTORE PUSH1 0x21 PUSH1 0x4 MSTORE PUSH1 0x24 PUSH0 REVERT INVALID 0xE2 0xB7 0xFB EXTCODESIZE DUP4 0x21 PUSH21 0x769106DAEBCFD6D1970523240DDA11281102DB9363 0xB8 EXTCODESIZE 0xD 0xC4 LOG2 PUSH5 0x6970667358 0x22 SLT KECCAK256 0xE9 BALANCE PUSH16 0x409D24F9F487EDA343C880B9B6592103 0xA7 MSTORE 0xF6 SWAP3 0xCE 0xAB PUSH0 0xA9 NUMBER DUP10 EXP SWAP11 0x29 PUSH5 0x736F6C6343 STOP ADDMOD BYTE STOP CALLER "
		},
		"gasEstimates": {
			"creation": {
				"codeDepositCost": "1571600",
				"executionCost": "infinite",
				"totalCost": "infinite"
			},
			"external": {
				"DEFAULT_ADMIN_ROLE()": "238",
				"DOMAIN_SEPARATOR()": "infinite",
				"MINTER_ROLE()": "282",
				"RELAYER_ROLE()": "infinite",
				"all_chain_balance(address)": "2651",
				"allowance(address,address)": "infinite",
				"approve(address,uint256)": "24788",
				"balanceOf(address)": "5009",
				"balance_differ(address)": "2670",
				"balance_used(address)": "2627",
				"burn(uint256)": "102218",
				"burnFrom(address,uint256)": "infinite",
				"cancle_increase(address,uint256)": "infinite",
				"cancle_increase(uint256)": "28434",
				"decimals()": "288",
				"decrease_limit(address,uint256)": "infinite",
				"decrease_limit(uint256)": "infinite",
				"eip712Domain()": "infinite",
				"finishTransfer(address,address,uint256)": "infinite",
				"getRoleAdmin(bytes32)": "2509",
				"grantRole(bytes32,address)": "infinite",
				"hasRole(bytes32,address)": "2718",
				"increase_limit(address,uint256,bytes)": "infinite",
				"limitOf(address)": "2638",
				"mint(address,uint256)": "infinite",
				"name()": "infinite",
				"nonces(address)": "2658",
				"pending_transfers(bytes32)": "2480",
				"permit(address,address,uint256,uint256,uint8,bytes32,bytes32)": "infinite",
				"renounceRole(bytes32,address)": "29070",
				"request_increase_limit(address,uint256)": "infinite",
				"request_increase_limit(uint256)": "26212",
				"revokeRole(bytes32,address)": "infinite",
				"single_balance(address)": "2605",
				"supportsInterface(bytes4)": "470",
				"symbol()": "infinite",
				"tmp_used(address)": "2584",
				"totalSupply()": "2393",
				"transfer(address,uint256)": "infinite",
				"transferFrom(address,address,uint256)": "infinite",
				"updateAllchainBalance(address,uint256,int256,bytes)": "infinite"
			},
			"internal": {
				"_cancle_increase(address,uint256)": "infinite",
				"_decrease_limit(address,uint256)": "infinite",
				"_increase_limit(address,uint256,bytes memory)": "infinite",
				"_request_increase_limit(address,uint256)": "infinite",
				"_update(address,address,uint256)": "infinite",
				"_updateAllchainBalance(address,uint256,int256,bytes memory)": "46621"
			}
		},
		"methodIdentifiers": {
			"DEFAULT_ADMIN_ROLE()": "a217fddf",
			"DOMAIN_SEPARATOR()": "3644e515",
			"MINTER_ROLE()": "d5391393",
			"RELAYER_ROLE()": "926d7d7f",
			"all_chain_balance(address)": "20de2ed4",
			"allowance(address,address)": "dd62ed3e",
			"approve(address,uint256)": "095ea7b3",
			"balanceOf(address)": "70a08231",
			"balance_differ(address)": "f17256ad",
			"balance_used(address)": "d05f1f10",
			"burn(uint256)": "42966c68",
			"burnFrom(address,uint256)": "79cc6790",
			"cancle_increase(address,uint256)": "d1939d89",
			"cancle_increase(uint256)": "579257b6",
			"decimals()": "313ce567",
			"decrease_limit(address,uint256)": "817f366c",
			"decrease_limit(uint256)": "d124d8e7",
			"eip712Domain()": "84b0196e",
			"finishTransfer(address,address,uint256)": "746043e8",
			"getRoleAdmin(bytes32)": "248a9ca3",
			"grantRole(bytes32,address)": "2f2ff15d",
			"hasRole(bytes32,address)": "91d14854",
			"increase_limit(address,uint256,bytes)": "9cfb4b52",
			"limitOf(address)": "546a2ca4",
			"mint(address,uint256)": "40c10f19",
			"name()": "06fdde03",
			"nonces(address)": "7ecebe00",
			"pending_transfers(bytes32)": "47f60bb6",
			"permit(address,address,uint256,uint256,uint8,bytes32,bytes32)": "d505accf",
			"renounceRole(bytes32,address)": "36568abe",
			"request_increase_limit(address,uint256)": "8bd709cc",
			"request_increase_limit(uint256)": "4208085b",
			"revokeRole(bytes32,address)": "d547741f",
			"single_balance(address)": "56695145",
			"supportsInterface(bytes4)": "01ffc9a7",
			"symbol()": "95d89b41",
			"tmp_used(address)": "3738b5a9",
			"totalSupply()": "18160ddd",
			"transfer(address,uint256)": "a9059cbb",
			"transferFrom(address,address,uint256)": "23b872dd",
			"updateAllchainBalance(address,uint256,int256,bytes)": "c8cce34a"
		}
	},
	"abi": [
		{
			"inputs": [
				{
					"internalType": "address",
					"name": "defaultAdmin",
					"type": "address"
				},
				{
					"internalType": "address",
					"name": "minter",
					"type": "address"
				}
			],
			"stateMutability": "nonpayable",
			"type": "constructor"
		},
		{
			"inputs": [],
			"name": "AccessControlBadConfirmation",
			"type": "error"
		},
		{
			"inputs": [
				{
					"internalType": "address",
					"name": "account",
					"type": "address"
				},
				{
					"internalType": "bytes32",
					"name": "neededRole",
					"type": "bytes32"
				}
			],
			"name": "AccessControlUnauthorizedAccount",
			"type": "error"
		},
		{
			"inputs": [],
			"name": "ECDSAInvalidSignature",
			"type": "error"
		},
		{
			"inputs": [
				{
					"internalType": "uint256",
					"name": "length",
					"type": "uint256"
				}
			],
			"name": "ECDSAInvalidSignatureLength",
			"type": "error"
		},
		{
			"inputs": [
				{
					"internalType": "bytes32",
					"name": "s",
					"type": "bytes32"
				}
			],
			"name": "ECDSAInvalidSignatureS",
			"type": "error"
		},
		{
			"inputs": [
				{
					"internalType": "address",
					"name": "spender",
					"type": "address"
				},
				{
					"internalType": "uint256",
					"name": "allowance",
					"type": "uint256"
				},
				{
					"internalType": "uint256",
					"name": "needed",
					"type": "uint256"
				}
			],
			"name": "ERC20InsufficientAllowance",
			"type": "error"
		},
		{
			"inputs": [
				{
					"internalType": "address",
					"name": "sender",
					"type": "address"
				},
				{
					"internalType": "uint256",
					"name": "balance",
					"type": "uint256"
				},
				{
					"internalType": "uint256",
					"name": "needed",
					"type": "uint256"
				}
			],
			"name": "ERC20InsufficientBalance",
			"type": "error"
		},
		{
			"inputs": [
				{
					"internalType": "address",
					"name": "approver",
					"type": "address"
				}
			],
			"name": "ERC20InvalidApprover",
			"type": "error"
		},
		{
			"inputs": [
				{
					"internalType": "address",
					"name": "receiver",
					"type": "address"
				}
			],
			"name": "ERC20InvalidReceiver",
			"type": "error"
		},
		{
			"inputs": [
				{
					"internalType": "address",
					"name": "sender",
					"type": "address"
				}
			],
			"name": "ERC20InvalidSender",
			"type": "error"
		},
		{
			"inputs": [
				{
					"internalType": "address",
					"name": "spender",
					"type": "address"
				}
			],
			"name": "ERC20InvalidSpender",
			"type": "error"
		},
		{
			"inputs": [
				{
					"internalType": "uint256",
					"name": "deadline",
					"type": "uint256"
				}
			],
			"name": "ERC2612ExpiredSignature",
			"type": "error"
		},
		{
			"inputs": [
				{
					"internalType": "address",
					"name": "signer",
					"type": "address"
				},
				{
					"internalType": "address",
					"name": "owner",
					"type": "address"
				}
			],
			"name": "ERC2612InvalidSigner",
			"type": "error"
		},
		{
			"inputs": [
				{
					"internalType": "address",
					"name": "account",
					"type": "address"
				},
				{
					"internalType": "uint256",
					"name": "currentNonce",
					"type": "uint256"
				}
			],
			"name": "InvalidAccountNonce",
			"type": "error"
		},
		{
			"inputs": [],
			"name": "InvalidShortString",
			"type": "error"
		},
		{
			"inputs": [
				{
					"internalType": "string",
					"name": "str",
					"type": "string"
				}
			],
			"name": "StringTooLong",
			"type": "error"
		},
		{
			"anonymous": false,
			"inputs": [
				{
					"indexed": true,
					"internalType": "address",
					"name": "owner",
					"type": "address"
				},
				{
					"indexed": true,
					"internalType": "address",
					"name": "spender",
					"type": "address"
				},
				{
					"indexed": false,
					"internalType": "uint256",
					"name": "value",
					"type": "uint256"
				}
			],
			"name": "Approval",
			"type": "event"
		},
		{
			"anonymous": false,
			"inputs": [],
			"name": "EIP712DomainChanged",
			"type": "event"
		},
		{
			"anonymous": false,
			"inputs": [
				{
					"indexed": true,
					"internalType": "address",
					"name": "to",
					"type": "address"
				},
				{
					"indexed": false,
					"internalType": "uint256",
					"name": "value",
					"type": "uint256"
				}
			],
			"name": "IncreaseCancled",
			"type": "event"
		},
		{
			"anonymous": false,
			"inputs": [
				{
					"indexed": true,
					"internalType": "address",
					"name": "to",
					"type": "address"
				},
				{
					"indexed": false,
					"internalType": "uint256",
					"name": "value",
					"type": "uint256"
				}
			],
			"name": "IncreaseLimitRequest",
			"type": "event"
		},
		{
			"anonymous": false,
			"inputs": [
				{
					"indexed": false,
					"internalType": "address",
					"name": "from",
					"type": "address"
				},
				{
					"indexed": false,
					"internalType": "address",
					"name": "to",
					"type": "address"
				},
				{
					"indexed": false,
					"internalType": "uint256",
					"name": "value",
					"type": "uint256"
				},
				{
					"indexed": false,
					"internalType": "uint256",
					"name": "balance",
					"type": "uint256"
				}
			],
			"name": "PendingTransfer",
			"type": "event"
		},
		{
			"anonymous": false,
			"inputs": [
				{
					"indexed": true,
					"internalType": "bytes32",
					"name": "role",
					"type": "bytes32"
				},
				{
					"indexed": true,
					"internalType": "bytes32",
					"name": "previousAdminRole",
					"type": "bytes32"
				},
				{
					"indexed": true,
					"internalType": "bytes32",
					"name": "newAdminRole",
					"type": "bytes32"
				}
			],
			"name": "RoleAdminChanged",
			"type": "event"
		},
		{
			"anonymous": false,
			"inputs": [
				{
					"indexed": true,
					"internalType": "bytes32",
					"name": "role",
					"type": "bytes32"
				},
				{
					"indexed": true,
					"internalType": "address",
					"name": "account",
					"type": "address"
				},
				{
					"indexed": true,
					"internalType": "address",
					"name": "sender",
					"type": "address"
				}
			],
			"name": "RoleGranted",
			"type": "event"
		},
		{
			"anonymous": false,
			"inputs": [
				{
					"indexed": true,
					"internalType": "bytes32",
					"name": "role",
					"type": "bytes32"
				},
				{
					"indexed": true,
					"internalType": "address",
					"name": "account",
					"type": "address"
				},
				{
					"indexed": true,
					"internalType": "address",
					"name": "sender",
					"type": "address"
				}
			],
			"name": "RoleRevoked",
			"type": "event"
		},
		{
			"anonymous": false,
			"inputs": [
				{
					"indexed": true,
					"internalType": "address",
					"name": "from",
					"type": "address"
				},
				{
					"indexed": true,
					"internalType": "address",
					"name": "to",
					"type": "address"
				},
				{
					"indexed": false,
					"internalType": "uint256",
					"name": "value",
					"type": "uint256"
				}
			],
			"name": "Transfer",
			"type": "event"
		},
		{
			"anonymous": false,
			"inputs": [
				{
					"indexed": false,
					"internalType": "address",
					"name": "from",
					"type": "address"
				},
				{
					"indexed": false,
					"internalType": "address",
					"name": "to",
					"type": "address"
				},
				{
					"indexed": false,
					"internalType": "uint256",
					"name": "amount",
					"type": "uint256"
				}
			],
			"name": "TransferFinish",
			"type": "event"
		},
		{
			"inputs": [],
			"name": "DEFAULT_ADMIN_ROLE",
			"outputs": [
				{
					"internalType": "bytes32",
					"name": "",
					"type": "bytes32"
				}
			],
			"stateMutability": "view",
			"type": "function"
		},
		{
			"inputs": [],
			"name": "DOMAIN_SEPARATOR",
			"outputs": [
				{
					"internalType": "bytes32",
					"name": "",
					"type": "bytes32"
				}
			],
			"stateMutability": "view",
			"type": "function"
		},
		{
			"inputs": [],
			"name": "MINTER_ROLE",
			"outputs": [
				{
					"internalType": "bytes32",
					"name": "",
					"type": "bytes32"
				}
			],
			"stateMutability": "view",
			"type": "function"
		},
		{
			"inputs": [],
			"name": "RELAYER_ROLE",
			"outputs": [
				{
					"internalType": "bytes32",
					"name": "",
					"type": "bytes32"
				}
			],
			"stateMutability": "view",
			"type": "function"
		},
		{
			"inputs": [
				{
					"internalType": "address",
					"name": "",
					"type": "address"
				}
			],
			"name": "all_chain_balance",
			"outputs": [
				{
					"internalType": "uint256",
					"name": "",
					"type": "uint256"
				}
			],
			"stateMutability": "view",
			"type": "function"
		},
		{
			"inputs": [
				{
					"internalType": "address",
					"name": "owner",
					"type": "address"
				},
				{
					"internalType": "address",
					"name": "spender",
					"type": "address"
				}
			],
			"name": "allowance",
			"outputs": [
				{
					"internalType": "uint256",
					"name": "",
					"type": "uint256"
				}
			],
			"stateMutability": "view",
			"type": "function"
		},
		{
			"inputs": [
				{
					"internalType": "address",
					"name": "spender",
					"type": "address"
				},
				{
					"internalType": "uint256",
					"name": "value",
					"type": "uint256"
				}
			],
			"name": "approve",
			"outputs": [
				{
					"internalType": "bool",
					"name": "",
					"type": "bool"
				}
			],
			"stateMutability": "nonpayable",
			"type": "function"
		},
		{
			"inputs": [
				{
					"internalType": "address",
					"name": "from",
					"type": "address"
				}
			],
			"name": "balanceOf",
			"outputs": [
				{
					"internalType": "uint256",
					"name": "",
					"type": "uint256"
				}
			],
			"stateMutability": "view",
			"type": "function"
		},
		{
			"inputs": [
				{
					"internalType": "address",
					"name": "",
					"type": "address"
				}
			],
			"name": "balance_differ",
			"outputs": [
				{
					"internalType": "int256",
					"name": "",
					"type": "int256"
				}
			],
			"stateMutability": "view",
			"type": "function"
		},
		{
			"inputs": [
				{
					"internalType": "address",
					"name": "",
					"type": "address"
				}
			],
			"name": "balance_used",
			"outputs": [
				{
					"internalType": "uint256",
					"name": "",
					"type": "uint256"
				}
			],
			"stateMutability": "view",
			"type": "function"
		},
		{
			"inputs": [
				{
					"internalType": "uint256",
					"name": "value",
					"type": "uint256"
				}
			],
			"name": "burn",
			"outputs": [],
			"stateMutability": "nonpayable",
			"type": "function"
		},
		{
			"inputs": [
				{
					"internalType": "address",
					"name": "account",
					"type": "address"
				},
				{
					"internalType": "uint256",
					"name": "value",
					"type": "uint256"
				}
			],
			"name": "burnFrom",
			"outputs": [],
			"stateMutability": "nonpayable",
			"type": "function"
		},
		{
			"inputs": [
				{
					"internalType": "uint256",
					"name": "amount",
					"type": "uint256"
				}
			],
			"name": "cancle_increase",
			"outputs": [],
			"stateMutability": "nonpayable",
			"type": "function"
		},
		{
			"inputs": [
				{
					"internalType": "address",
					"name": "to",
					"type": "address"
				},
				{
					"internalType": "uint256",
					"name": "amount",
					"type": "uint256"
				}
			],
			"name": "cancle_increase",
			"outputs": [],
			"stateMutability": "nonpayable",
			"type": "function"
		},
		{
			"inputs": [],
			"name": "decimals",
			"outputs": [
				{
					"internalType": "uint8",
					"name": "",
					"type": "uint8"
				}
			],
			"stateMutability": "view",
			"type": "function"
		},
		{
			"inputs": [
				{
					"internalType": "address",
					"name": "to",
					"type": "address"
				},
				{
					"internalType": "uint256",
					"name": "amount",
					"type": "uint256"
				}
			],
			"name": "decrease_limit",
			"outputs": [],
			"stateMutability": "nonpayable",
			"type": "function"
		},
		{
			"inputs": [
				{
					"internalType": "uint256",
					"name": "amount",
					"type": "uint256"
				}
			],
			"name": "decrease_limit",
			"outputs": [],
			"stateMutability": "nonpayable",
			"type": "function"
		},
		{
			"inputs": [],
			"name": "eip712Domain",
			"outputs": [
				{
					"internalType": "bytes1",
					"name": "fields",
					"type": "bytes1"
				},
				{
					"internalType": "string",
					"name": "name",
					"type": "string"
				},
				{
					"internalType": "string",
					"name": "version",
					"type": "string"
				},
				{
					"internalType": "uint256",
					"name": "chainId",
					"type": "uint256"
				},
				{
					"internalType": "address",
					"name": "verifyingContract",
					"type": "address"
				},
				{
					"internalType": "bytes32",
					"name": "salt",
					"type": "bytes32"
				},
				{
					"internalType": "uint256[]",
					"name": "extensions",
					"type": "uint256[]"
				}
			],
			"stateMutability": "view",
			"type": "function"
		},
		{
			"inputs": [
				{
					"internalType": "address",
					"name": "from",
					"type": "address"
				},
				{
					"internalType": "address",
					"name": "to",
					"type": "address"
				},
				{
					"internalType": "uint256",
					"name": "amount",
					"type": "uint256"
				}
			],
			"name": "finishTransfer",
			"outputs": [],
			"stateMutability": "nonpayable",
			"type": "function"
		},
		{
			"inputs": [
				{
					"internalType": "bytes32",
					"name": "role",
					"type": "bytes32"
				}
			],
			"name": "getRoleAdmin",
			"outputs": [
				{
					"internalType": "bytes32",
					"name": "",
					"type": "bytes32"
				}
			],
			"stateMutability": "view",
			"type": "function"
		},
		{
			"inputs": [
				{
					"internalType": "bytes32",
					"name": "role",
					"type": "bytes32"
				},
				{
					"internalType": "address",
					"name": "account",
					"type": "address"
				}
			],
			"name": "grantRole",
			"outputs": [],
			"stateMutability": "nonpayable",
			"type": "function"
		},
		{
			"inputs": [
				{
					"internalType": "bytes32",
					"name": "role",
					"type": "bytes32"
				},
				{
					"internalType": "address",
					"name": "account",
					"type": "address"
				}
			],
			"name": "hasRole",
			"outputs": [
				{
					"internalType": "bool",
					"name": "",
					"type": "bool"
				}
			],
			"stateMutability": "view",
			"type": "function"
		},
		{
			"inputs": [
				{
					"internalType": "address",
					"name": "to",
					"type": "address"
				},
				{
					"internalType": "uint256",
					"name": "amount",
					"type": "uint256"
				},
				{
					"internalType": "bytes",
					"name": "_proof",
					"type": "bytes"
				}
			],
			"name": "increase_limit",
			"outputs": [],
			"stateMutability": "nonpayable",
			"type": "function"
		},
		{
			"inputs": [
				{
					"internalType": "address",
					"name": "from",
					"type": "address"
				}
			],
			"name": "limitOf",
			"outputs": [
				{
					"internalType": "uint256",
					"name": "",
					"type": "uint256"
				}
			],
			"stateMutability": "view",
			"type": "function"
		},
		{
			"inputs": [
				{
					"internalType": "address",
					"name": "to",
					"type": "address"
				},
				{
					"internalType": "uint256",
					"name": "amount",
					"type": "uint256"
				}
			],
			"name": "mint",
			"outputs": [],
			"stateMutability": "nonpayable",
			"type": "function"
		},
		{
			"inputs": [],
			"name": "name",
			"outputs": [
				{
					"internalType": "string",
					"name": "",
					"type": "string"
				}
			],
			"stateMutability": "view",
			"type": "function"
		},
		{
			"inputs": [
				{
					"internalType": "address",
					"name": "owner",
					"type": "address"
				}
			],
			"name": "nonces",
			"outputs": [
				{
					"internalType": "uint256",
					"name": "",
					"type": "uint256"
				}
			],
			"stateMutability": "view",
			"type": "function"
		},
		{
			"inputs": [
				{
					"internalType": "bytes32",
					"name": "",
					"type": "bytes32"
				}
			],
			"name": "pending_transfers",
			"outputs": [
				{
					"internalType": "uint256",
					"name": "",
					"type": "uint256"
				}
			],
			"stateMutability": "view",
			"type": "function"
		},
		{
			"inputs": [
				{
					"internalType": "address",
					"name": "owner",
					"type": "address"
				},
				{
					"internalType": "address",
					"name": "spender",
					"type": "address"
				},
				{
					"internalType": "uint256",
					"name": "value",
					"type": "uint256"
				},
				{
					"internalType": "uint256",
					"name": "deadline",
					"type": "uint256"
				},
				{
					"internalType": "uint8",
					"name": "v",
					"type": "uint8"
				},
				{
					"internalType": "bytes32",
					"name": "r",
					"type": "bytes32"
				},
				{
					"internalType": "bytes32",
					"name": "s",
					"type": "bytes32"
				}
			],
			"name": "permit",
			"outputs": [],
			"stateMutability": "nonpayable",
			"type": "function"
		},
		{
			"inputs": [
				{
					"internalType": "bytes32",
					"name": "role",
					"type": "bytes32"
				},
				{
					"internalType": "address",
					"name": "callerConfirmation",
					"type": "address"
				}
			],
			"name": "renounceRole",
			"outputs": [],
			"stateMutability": "nonpayable",
			"type": "function"
		},
		{
			"inputs": [
				{
					"internalType": "uint256",
					"name": "amount",
					"type": "uint256"
				}
			],
			"name": "request_increase_limit",
			"outputs": [],
			"stateMutability": "nonpayable",
			"type": "function"
		},
		{
			"inputs": [
				{
					"internalType": "address",
					"name": "to",
					"type": "address"
				},
				{
					"internalType": "uint256",
					"name": "amount",
					"type": "uint256"
				}
			],
			"name": "request_increase_limit",
			"outputs": [],
			"stateMutability": "nonpayable",
			"type": "function"
		},
		{
			"inputs": [
				{
					"internalType": "bytes32",
					"name": "role",
					"type": "bytes32"
				},
				{
					"internalType": "address",
					"name": "account",
					"type": "address"
				}
			],
			"name": "revokeRole",
			"outputs": [],
			"stateMutability": "nonpayable",
			"type": "function"
		},
		{
			"inputs": [
				{
					"internalType": "address",
					"name": "",
					"type": "address"
				}
			],
			"name": "single_balance",
			"outputs": [
				{
					"internalType": "uint256",
					"name": "",
					"type": "uint256"
				}
			],
			"stateMutability": "view",
			"type": "function"
		},
		{
			"inputs": [
				{
					"internalType": "bytes4",
					"name": "interfaceId",
					"type": "bytes4"
				}
			],
			"name": "supportsInterface",
			"outputs": [
				{
					"internalType": "bool",
					"name": "",
					"type": "bool"
				}
			],
			"stateMutability": "view",
			"type": "function"
		},
		{
			"inputs": [],
			"name": "symbol",
			"outputs": [
				{
					"internalType": "string",
					"name": "",
					"type": "string"
				}
			],
			"stateMutability": "view",
			"type": "function"
		},
		{
			"inputs": [
				{
					"internalType": "address",
					"name": "",
					"type": "address"
				}
			],
			"name": "tmp_used",
			"outputs": [
				{
					"internalType": "uint256",
					"name": "",
					"type": "uint256"
				}
			],
			"stateMutability": "view",
			"type": "function"
		},
		{
			"inputs": [],
			"name": "totalSupply",
			"outputs": [
				{
					"internalType": "uint256",
					"name": "",
					"type": "uint256"
				}
			],
			"stateMutability": "view",
			"type": "function"
		},
		{
			"inputs": [
				{
					"internalType": "address",
					"name": "to",
					"type": "address"
				},
				{
					"internalType": "uint256",
					"name": "value",
					"type": "uint256"
				}
			],
			"name": "transfer",
			"outputs": [
				{
					"internalType": "bool",
					"name": "",
					"type": "bool"
				}
			],
			"stateMutability": "nonpayable",
			"type": "function"
		},
		{
			"inputs": [
				{
					"internalType": "address",
					"name": "from",
					"type": "address"
				},
				{
					"internalType": "address",
					"name": "to",
					"type": "address"
				},
				{
					"internalType": "uint256",
					"name": "value",
					"type": "uint256"
				}
			],
			"name": "transferFrom",
			"outputs": [
				{
					"internalType": "bool",
					"name": "",
					"type": "bool"
				}
			],
			"stateMutability": "nonpayable",
			"type": "function"
		},
		{
			"inputs": [
				{
					"internalType": "address",
					"name": "to",
					"type": "address"
				},
				{
					"internalType": "uint256",
					"name": "amount",
					"type": "uint256"
				},
				{
					"internalType": "int256",
					"name": "differ",
					"type": "int256"
				},
				{
					"internalType": "bytes",
					"name": "_proof",
					"type": "bytes"
				}
			],
			"name": "updateAllchainBalance",
			"outputs": [],
			"stateMutability": "nonpayable",
			"type": "function"
		}
	]
}